:020000040800F2
:100000002005002001010008F91B0008591A00080A
:10001000951B00089D020008B920000800000000A0
:10002000000000000000000000000000311D00087A
:100030001104000800000000FB1B0008A11D0008BF
:100040001B0100081B0100081B0100081B01000820
:100050001B0100081B0100081B0100081B01000810
:100060001B0100081B0100081B0100081B01000800
:100070001B0100081B0100081B0100081B010008F0
:100080001B0100081B0100081B0100081B010008E0
:100090001B0100081B0100081B0100081B010008D0
:1000A0001B010008F51D00081B0100081B010008CA
:1000B0001B0100081B0100081B0100081B010008B0
:1000C0001B0100081B0100081B0100081B010008A0
:1000D0001B010008AD2000081B0100081B010008DF
:1000E0001B0100081B0100081B010008DFF80CD0F1
:1000F00000F0C2F800480047C12200082005002097
:100100000648804706480047FEE7FEE7FEE7FEE7B1
:10011000FEE7FEE7FEE7FEE7FEE7FEE7F31D000869
:10012000ED000008D2B201E000F8012B491EFBD21D
:1001300070470022F6E710B513460A4604461946F2
:10014000FFF7F0FF204610BD30B480EA010202F054
:10015000004530F0004221F0004013D090B1C30DB3
:10016000D40DC2F31601C0F31600E41A41F40001E5
:1001700040F400027D34914201D3641C00E0490048
:10018000002C02DA30BC002070474FF4000000233E
:10019000914201D3891A034340084FEA4101F7D144
:1001A00051B1914202D14FF0004105E002D24FF02F
:1001B000010101E06FF0010103EBC450284430BCA1
:1001C00000F022B8C10F80EAE0700844CA07962305
:1001D000002100F022B800F0004220F00040C10DE4
:1001E000C0F3160040F400007F2901DA00207047B8
:1001F000962903DCC1F19601C84001E09639884098
:10020000002AF4D0404270470029A8BF7047401C24
:10021000490008BF20F00100704710B4B0FA80FC1C
:1002200000FA0CF050EA010404BF10BC704749B159
:10023000CCF1200421FA04F411FA0CF118BF0121C9
:1002400021430843A3EB0C01CB1D4FEA00614FEAA9
:10025000102042BF002010BC704700EBC350104478
:100260000029A4BF10BC7047401C490008BF20F003
:10027000010010BC70470000064C074D06E0E06826
:1002800040F0010394E8070098471034AC42F6D3DD
:10029000FFF730FF2423000844230008FEE7000096
:1002A0002DE9F84F554D4FF48059534E4FF4006AE5
:1002B0004FF4807B00274FF00108A5F11C0465E096
:1002C0002868012862D10023012269464C4801F0C8
:1002D00009FB00285AD19DF80000A32840D006DC75
:1002E000A02809D0A12818D0A2284FD127E0C028E3
:1002F00048D0C1284AD147E001224946304600F0A3
:10030000DCF901225146304600F0D7F90122594666
:10031000304600F0D2F9AF6038E00022494630465E
:1003200000F0CBF901225146304600F0C6F9012217
:100330005946304600F0C1F9C5F8088026E0012290
:100340004946304600F0B9F900225146304600F0E7
:10035000B4F901225946304600F0AFF902200FE00F
:1003600001224946304600F0A8F9012251463046A4
:1003700000F0A3F900225946304600F09EF9032010
:10038000A86003E06F6001E0C5F80480A068002861
:1003900096D0A76001220321042001F01BFF2060FA
:1003A0002968012907D0A0F500006060686828B1BD
:1003B00001280DD108E01349081AF6E70F496068D3
:1003C000083901F07BFE03E00F49606801F0E4FBAF
:1003D000E0681421401C90FBF1F201FB12010B4874
:1003E000E160022901DA002200E00122012100F08F
:1003F00064F9BDE8F88F0000000801401C000020EF
:10040000E0000020EB7BE80028000020000C014009
:100410007047000010B590F821100024022903D085
:100420000421816301243DE001680A6822F00E0284
:100430000A6001680A6822F001020A601A4A01682B
:10044000914201D1012121E0174A1432914201D198
:1004500010211BE0144A2832914201D1891515E080
:10046000114A3C32914201D189140FE00E4A5032B8
:10047000914202D14FF4803108E00B4A643291423C
:1004800002D14FF4801101E04FF08071064A083A22
:100490005160012180F82110002180F82010416B6B
:1004A00001B18847204610BD0800024070B50446DF
:1004B00000F008F90546601C02D0044800780444A6
:1004C00000F000F9401BA042FAD370BD30000020BC
:1004D0002DE9F84FDFF8B891002409F1040A0AF178
:1004E000040B23460F270BF1040EC9E00125A5409C
:1004F0002A40AA427DD1674ED1F804C0ACEB060871
:10050000B44532D014DCBCF1030F3AD009DCBCF1A5
:10051000000F2AD0BCF1010F1CD0BCF1020F31D169
:100520001DE0BCF1110F17D0BCF1120F2AD119E058
:10053000B8F5881F19D006DCB8F5803F15D0B8F59E
:10054000801F1FD111E0B8F5001F0ED0B8F5041FB1
:1005500018D10AE0CB6815E0CB681B1D12E0CB6810
:1005600008330FE0CB680C330CE08B682BB1012B08
:100570004FF0080303D0456104E0042302E0056165
:1005800000E00023FF2A01D8064601E000F104063E
:100590004FEA840501D9A5F12005D6F8008007FAB5
:1005A00005FC28EA0C0803FA05F548EA0508C6F830
:1005B00000804D68ED0062D5374DAE6946F001060A
:1005C000AE61AD6924F0030605F001050095334DD9
:1005D00006EB050CDCF80850A607360F07FA06F8FC
:1005E00025EA0805DFF8B880404503D14FF0000840
:1005F00017E044E0DFF8AC80404502D14FF001083D
:100600000FE0DFF8A480404502D14FF0020808E077
:10061000DFF89880404502D14FF0030801E04FF029
:10062000040808FA06F848EA0508CCF808804D687E
:10063000D9F80060ED034D4601D5164300E096431E
:100640002E604D68DAF80060AD03554601D51643BB
:1006500000E096432E604D68DBF80060ED025D46D9
:1006600001D5164300E096432E604D68DEF8006029
:10067000AD02754601D5164300E096432E60641C1A
:100680000D682A46E5407FF431AFBDE8F88F0000E1
:100690000004014000001110001002400000014061
:1006A00000080140000C014000100140001401400E
:1006B0008068084000D0012070470AB1016170478E
:1006C0000904FBE701488068704700003000002003
:1006D0000248816802781144816070473000002030
:1006E000074810B5016841F010010160032000F0D7
:1006F00075F8002000F006F800F024F8002010BD86
:100700000020024070B50D4D04464FF47A712878F0
:10071000B1FBF0F00A490968B1FBF0F000F0CFFD41
:1007200048B9102C07D200222146501E00F036F89E
:1007300000206C6070BD012070BD00003000002002
:100740003C0000200C4808B5816941F0010181613D
:10075000816901F001010091C16941F08051C161DD
:10076000C06900F0805000900448416821F0E061C9
:1007700041F00071416008BD0010024000000140DE
:10078000002809DB00F01F02012191404009800090
:1007900000F1E020C0F8001170470000F0B40E4BEB
:1007A0001B680C46C3F30223C3F10705042D00D9CF
:1007B0000425191D072901D2002300E0DB1E0126B4
:1007C00006FA05F1491E214099409E40761E1640CA
:1007D0003143F0BC01F096BC0CED00E0064900F09E
:1007E000070208684FF6FF03184040EA0220034A58
:1007F00010430860704700000CED00E00000FA05AF
:100800002DE9F0470F46050061D0434E306800F0F7
:100810000700B84209D2306820F007003843306042
:10082000306800F00700B84251D128683B4C81077E
:1008300012D5400703D5606840F4E0606060287816
:10084000000703D5606840F4605060606068A96884
:1008500020F0F000084360602878C00728D068685E
:10086000012810D02168022810D0890700292EDA2B
:10087000616821F0030101436160FFF723FF8046B7
:1008800041F288390DE021688903EFE78901EDE73E
:10089000FFF718FFA0EB0801494502D90320BDE886
:1008A000F0876068696800F00C00B0EB810FEFD151
:1008B000306800F00700B8420BD9306820F007001C
:1008C00038433060306800F00700B84201D00120A2
:1008D000E5E72878400705D56068E96820F4E0601E
:1008E000084360602878000706D56068296920F40D
:1008F000605040EAC100606000F038F86168084A62
:10090000C1F30311515CC8400649086006480068FD
:10091000FFF7F8FE0020C2E700200240001002406E
:100920000C2300083C000020340000200448054946
:1009300000684968044AC1F30221515CC84070470D
:100940003C000020001002401C2300080448054918
:1009500000684968044AC1F3C221515CC84070472D
:100960003C000020001002401C23000812A185B0AA
:100970000FC98DE80F0014A0144A00680490516854
:10098000134801F00C03042B10D0082B0ED1C1F337
:100990008343C9031DF803000AD5516804AAC1F3B3
:1009A0004041515C0A4A5043B0FBF1F005B070473A
:1009B00008494843FAE7000002030405060708094E
:1009C0000A0B0C0D0E0F1010010200000010024067
:1009D00000127A0000093D002DE9F84F040070D0A4
:1009E0002078C04DC00749D06868C0F38100012855
:1009F00007D06868C0F38100022809D16868C00385
:100A000006D52868800339D560680028E7D035E02E
:100A10006068B0F5803F0BD010B1B0F5A02F11D0B9
:100A2000286820F480302860286820F4802002E0C4
:100A3000286840F480302860606890B1FFF742FE7B
:100A400006460AE0286840F480202860F0E700BFEE
:100A5000FFF738FE801B642873D828688003F7D519
:100A60000CE0FFF72FFE064605E000BFFFF72AFE69
:100A7000801B6428F0D828688003F7D420789A4E29
:100A800080074FF001094FF0000839D5686810F071
:100A90000C0F07D06868C0F38100022809D168688C
:100AA000C00306D42868800714D52069012808D11E
:100AB00010E02069B0B1C6F80090FFF703FE0746CA
:100AC00005E00AE1FFF7FEFDC01B0228C4D8286834
:100AD0008007F7D52868616920F0F80040EAC10076
:100AE00028600DE0C6F80080FFF7ECFD074604E043
:100AF000FFF7E8FDC01B022823D828688007F7D439
:100B0000207800072CD57948A169D9B1C0F80090A8
:100B1000FFF7D8FD074604E0FFF7D4FDC01B02280D
:100B20000FD8686A8007F7D571484FF4FA5100680A
:100B3000B0FBF1F0009000BF0098411E0091FAD286
:100B40000EE080E0C0F80080FFF7BCFD074604E03F
:100B5000FFF7B8FDC01B022875D8686A8007F7D474
:100B60002078400760D5E8690027C00008D4E8690C
:100B700040F08050E861E869012700F08050009063
:100B80005C480168C90513D40168834641F480714B
:100B90000160FFF797FD824606E000BFFFF792FD78
:100BA000A0EB0A0064284ED8DBF80000C005F5D59C
:100BB000E06801280AD008B1052813D0286A20F07F
:100BC00001002862286A20F0040002E0286A40F050
:100BD00001002862E06841F2883B98B1FFF772FD9E
:100BE00082460BE0286A40F004002862EEE700BF6E
:100BF000FFF768FDA0EB0A0159455AD8286A80071B
:100C0000F6D50CE0FFF75EFD824605E0FFF75AFDE2
:100C1000A0EB0A0159454CD8286A8007F6D41FB1C9
:100C2000E86920F08050E861E06988B36968C1F341
:100C30008101022944D00228C6F8608004D0FFF761
:100C400041FD044638E034E0FFF73CFD074604E090
:100C5000FFF738FDC01B02282BD828688001F7D485
:100C6000206AB0F5803F05D16868A16820F40030A3
:100C700008436860D4E908010843696821F47411E5
:100C800008436860C6F86090FFF71CFD044606E064
:100C900025E000BFFFF716FD001B022809D82868D1
:100CA0008001F7D51BE000BFFFF70CFD001B0228F9
:100CB00002D90320BDE8F88F28688001F4D40EE043
:100CC0000128F7D06868226A00F48031914204D18B
:100CD000616A00F47010884201D00120EAE7002028
:100CE000E8E7000000100240000042428004424257
:100CF0003C0000200070004070B5040009D0606A1C
:100D0000002540B125616561A56294F8510040B1AC
:100D10000CE0012070BD6068B0F5827FF4D0E56121
:100D2000F2E784F85050204600F040F8022084F8A2
:100D300051002068016821F040010160A0882189EC
:100D400000F4827001F404410843A18901F40061B8
:100D50000843217C01F002010843217D01F00101DB
:100D60000843218B01F400710843217F01F0380111
:100D7000084394F8201001F080010843218D01F40C
:100D80000051084321680860A069042101EA10406D
:100D9000216848602068C16921F40061C16165650E
:100DA000012084F85100002070BD000030B585B0EE
:100DB000002400940194029403940068144988422A
:100DC00023D11448816941F480518161816901F422
:100DD00080510491816941F00401816180690E4D67
:100DE00000F004000490A020009002200190032055
:100DF000039069462846FFF76BFB4020CDE90004CD
:100E0000694628460294FFF763FB05B030BD000039
:100E10000030014000100240000801402DE9F84F69
:100E2000044640680025984616460F464FF0040BCE
:100E3000B0F5827F01D1A06888B194F850000128F4
:100E400018D0012084F85000FFF73CFC814694F84C
:100E500051004FF0000A01280ED0022582E084F8EC
:100E600051B013460A462046CDF8008000F036F90E
:100E7000BDE8F88F0220FBE7002F72D0002E70D063
:100E800084F851B0C4F854A0A763A687E687C4F8D5
:100E900030A0A4F834A0A4F836A0C4F840A0C4F848
:100EA00044A0A068B0F5004F09D12068016821F086
:100EB000400101602068016821F4804101602068E0
:100EC0000168490603D4016841F040010160E0680F
:100ED000D8B139E020688168C90709D0007BA16BCF
:100EE0000870A06B401CA063E08F401EE0870CE000
:100EF000FFF7E8FBA0EB0901414503D3B8F1FF3F41
:100F000003D036E0B8F1000F33D0E08F0028E1D1F4
:100F10001DE020688168C90709D0C068A16B0880FE
:100F2000A06B801CA063E08F401EE0870CE0FFF701
:100F3000C9FBA0EB0901414503D3B8F1FF3F03D042
:100F400017E0B8F1000F14D0E08F0028E1D14A4635
:100F50004146204600F052FE08B120206065606DD9
:100F600000B10125012084F8510084F850A02846E2
:100F70007EE70325F6E72DE9F84F044690F8500088
:100F800000271D461646894601280DD04FF0010B5B
:100F900084F850B0FFF796FB804694F85100BA46AB
:100FA000012804D0022793E00220BDE8F88FB9F1B0
:100FB000000F73D0002E71D0032084F85100C4F8C4
:100FC00054A0C4F83090A686E686C4F838A0A4F8E9
:100FD0003CA0A4F83EA0C4F844A0C4F840A0A06877
:100FE000B0F5004F09D12068016821F0400101608F
:100FF0002068016841F48041016020680168490669
:1010000003D4016841F040010160E068B0F5006F71
:10101000606803D030B3012E24D041E008B1012E26
:101020001CD1206B21680088C86006E020688168B8
:10103000890709D5216B0988C160206B801C20635A
:10104000E08E401EE08609E0FFF73CFBA0EB0800C5
:10105000A84202D3681C01D031E07DB3E08E0028A5
:10106000E4D120E0206B21680078087306E0206856
:101070008168890709D5216B09780173206B401CB1
:101080002063E08E401EE0860AE0FFF71BFBA0EB2A
:101090000800A84203D3681C02D010E017E06DB12D
:1010A000E08E0028E3D142462946204600F0D4FDD8
:1010B00008B120206065A06818B106E0FFE70327AB
:1010C00006E02068C16880680090606D00B101276B
:1010D00084F851B084F850A0384666E72DE9F84FFF
:1010E000044690F8500000270A9E1D4692468B4603
:1010F0004FF0010901280ED0012084F85000FFF7BD
:10110000E1FA804694F85100616801280CD0B1F5ED
:10111000827F07D102E00220BDE8F88FA16809B9FB
:10112000042801D00227C2E0BBF1000F27D0BAF19A
:10113000000F24D01DB394F85100042802D00520DC
:1011400084F8510000206065C4F838A0E587A587C1
:10115000C4F830B0E586A586206460642068016824
:10116000490603D4016841F040010160E068B0F530
:10117000006F606805D0E8B3012D46D07FE00127FD
:1011800095E008B1012D39D1206B21680088C86035
:10119000206B801C2063E08E401EE0862EE02068DD
:1011A000816889070FD5E18E69B1B9F1010F0AD1C4
:1011B000216B0988C160206B801C2063E08E401E7B
:1011C000E0864FF0000920688168C9070CD0E18FE4
:1011D00051B1C068A16B0880A06B801CA063E08F38
:1011E000401EE0874FF00109FFF76CFAA0EB080002
:1011F000B04200E009E001D3701C50D1E08E00281D
:10120000CDD1E08F0028CAD13FE0206B2168007863
:101210000873206B401C2063E08E401EE0862EE0A9
:101220002068816889070FD5E18E69B1B9F1010F96
:101230000AD1216B09780173206B401C2063E08E7A
:10124000401EE0864FF0000920688168C9070CD075
:10125000E18F51B1C068A16B0870A06B401CA06306
:10126000E08F401EE0874FF00109FFF72BFAA0EB5B
:101270000800B04202D3701C01D010E07EB1E08EB5
:101280000028CDD1E08F0028CAD142463146204601
:1012900000F0E2FC28B101272020606507E0032769
:1012A00005E0A06818B92068C16880680090012036
:1012B00084F85100002084F8500038462CE710B51F
:1012C000401EB0F1807F01D3012010BD4FF0E0241B
:1012D00060610F21601700F015FF0020A06107205A
:1012E0002061002010BD70477047000070B590F875
:1012F0003C20012A26D0012480F83C40022280F8BC
:101300003D2003685A689D6822F070060A683243DF
:101310005A600D4B02689A4208D0B2F1804F05D056
:101320000A4B9A4202D00A4B9A4204D1496825F0EE
:1013300080031943916080F83D40002180F83C1003
:10134000084670BD022070BD002C01400004004022
:101350000008004010B5040003D094F83D0010B11F
:1013600007E0012010BD002084F83C00204600F07A
:101370001FF8022084F83D00211D206800F040FD88
:10138000012084F8460084F83E0084F83F0084F889
:10139000400084F8410084F8420084F8430084F857
:1013A000440084F8450084F83D00002010BD000092
:1013B00008B500680B49884212D10B48816941F495
:1013C000006181618069002200F400600090114694
:1013D0001920FFF7E3F9BDE808401920FFF7D0B95D
:1013E00008BD0000002C01400010024090F83D10A4
:1013F000012901D001207047022180F83D100168C9
:10140000CA6842F00102CA6000680B49884208D0ED
:10141000B0F1804F05D00949884202D0084988427E
:1014200004D1816801F00701062903D0016841F069
:101430000101016000207047002C014000040040C1
:101440000008004070B5044690F83C00012817D011
:10145000012584F83C50022084F83D002068826811
:1014600022F0770222F47F4282600868502830D050
:101470000DDC20284DD005DC98B310283BD148E086
:10148000022070BD302844D0402834D139E0602893
:1014900028D0702806D0B0F5805F2CD0B0F5005F62
:1014A00029D10AE0CB68D1E90121206800F0DEFCF7
:1014B0002068816841F0770109E0CB68D1E901211A
:1014C000206800F0D3FC2068816841F4804181608D
:1014D00011E0CA684968206800F0DAFC50212068F1
:1014E00007E016E0CA684968206800F0E2FC602165
:1014F000206800F0C5FC84F83D50002084F83C00D2
:1015000070BDCA684968206800F0C2FC40212068AC
:10151000EFE7226801461046EBE7704770B50446D6
:10152000006801694FF00005C943890715D4C168F7
:10153000C943890711D4E91E016101202077206881
:1015400080698007204602D0FFF7E7FF04E000F043
:1015500098F8204600F096F8257720680169C9437D
:10156000490717D4C168C943490713D46FF0040170
:101570000161022020772068806910F4407F2046B6
:1015800002D0FFF7CAFF04E000F07BF8204600F02D
:1015900079F8257720680169C943090716D4C1681D
:1015A000C943090712D46FF00801016104202077B4
:1015B0002068C0698007204602D0FFF7AEFF04E034
:1015C00000F05FF8204600F05DF82577206801699B
:1015D000C943C90617D4C168C943C90613D46FF0FB
:1015E00010010161082020772068C06910F4407F55
:1015F000204602D0FFF791FF04E000F042F82046B9
:1016000000F040F8257720680169C943C90708D16F
:10161000C168C943C90704D1891E0161204600F091
:1016200033F820680169C943090609D4C168C94370
:10163000090605D46FF0800101612046FFF753FED3
:1016400020680169C943490609D4C168C9434906EC
:1016500005D46FF040010161204600F029F82068B0
:101660000169C94389060BD4C168C943890607D4F7
:101670006FF0200101612046BDE87040FFF734BEE5
:1016800070BD70477047000000680749884209D163
:1016900006480169491C0161322903DB012181608F
:1016A0000021016170470000002C01400000002073
:1016B0007047704770B5026804461068D168536976
:1016C00010F00F0F52D003F0010501F490762E4375
:1016D0005FD0C20705D0CA0503D5E26B42F0010214
:1016E000E263420705D5DA0703D0E26B42F002025B
:1016F000E263820705D5DA0703D0E26B42F0040209
:10170000E263020707D501F020022A4303D0E26B0F
:1017100042F00802E263E26B002A33D0800604D56F
:10172000880602D5204600F0ECFB20684069E16B9A
:10173000C0F38010090700D428B3204600F0D3FB83
:101740002068416949061AD5416921F0400141618B
:10175000606BA0B12D494163606BFEF75BFE002812
:1017600010D0606B416BBDE870400847830610D510
:101770008B060ED52046BDE8704000F0C2BB204667
:10178000FFF797FF70BD2046FFF793FF0020E0634F
:1017900070BD03062BD50B0629D594F839002128F6
:1017A000F6D1A068B0F5805F01D12069B0B1206AA0
:1017B000411C2162216800784860E08C401E0004D2
:1017C000000CE084E4D12068C16821F08001C16090
:1017D0002068C16841F04001C16070BD206A008886
:1017E000C0F308005060206A801C2062E5E74006D4
:1017F000F3D54806F1D5D168204621F04001D160EB
:10180000202184F8391000F026F970BDD71E000899
:1018100070B5040004D094F83900002510B106E03A
:10182000012070BD84F83850204600F023F82420B1
:1018300084F839002068C16821F40051C160204655
:1018400000F0A6FB2068016921F490410161206845
:10185000416921F02A0141612068C16841F40051C9
:10186000C160E563202084F8390084F83A00002044
:1018700070BD000030B585B000240094019402943E
:10188000039400681449884224D11448816941F4C2
:1018900080418161816901F480410491816941F055
:1018A0000401816180690E4D00F0040004904FF442
:1018B00000700090022001900320039069462846A2
:1018C000FEF706FE2815CDE9000469462846029475
:1018D000FEF7FEFD05B030BD0038014000100240AB
:1018E000000801402DE9F84F044690F83A009A4666
:1018F00016460D46202851D1EDB1E6B194F83800D6
:1019000001284BD0012084F838000027E76322200B
:1019100084F83A00FEF7D6FEA6858146E685A068E3
:101920004FF48058404501D1206938B12E4600253A
:1019300084F8387027E00120BDE8F88F0026F7E72B
:101940004B46002220212046CDF800A000F07CFB71
:1019500008B10320F0E726B1A06840451BD038B19C
:1019600008E020684068C0F3080025F8020B07E093
:10197000206980B12068406800F07F0006F8010B04
:10198000E08D401EE085E08D0028D9D1202084F82C
:101990003A000020D0E720684068EFE70220CBE75C
:1019A000704700002DE9F843044690F839001F46BF
:1019B00016460D4620284CD1C5B1BEB194F838006A
:1019C000012846D0012084F838004FF00008C4F800
:1019D0003C80212084F83900FEF774FEA6848146FD
:1019E000E684A068B0F5805F03D004E00120BDE884
:1019F000F883206928B12E465FF0000584F838800E
:101A00000EE00026FAE78021204600F01DFBA0B979
:101A1000AEB116F8010B21684860E08C401EE084EE
:101A2000E08C4B464FF0000200970028EBD14FF0BE
:101A30004001204600F008FB30B10320D7E735F81D
:101A4000020BC0F30800E6E7202084F839000020EC
:101A5000CDE70220CBE77047FEE70000F0B585B088
:101A6000002424480094019402940394816941F075
:101A700020018161816901F020010491816941F0B7
:101A800004018161816901F004010491816941F0DF
:101A9000080181618069184E00F00800049001225D
:101AA00008213046FEF709FE144F00220121384676
:101AB000FEF703FE41F60410CDE900046946304606
:101AC0000294FEF705FD08200125CDE9000503205D
:101AD000CDE9024069463046FEF7FAFC0220CDE926
:101AE00002400095694601953846FEF7F1FC05B0C5
:101AF000F0BD00000010024000080140000C014051
:101B00000C480B49022201604FF4827141600021B0
:101B10008160C0E9031201224261520282613022D7
:101B2000C0E90721416281620A21C162FFF7E4B87E
:101B3000003001404000002010B586B00024144859
:101B40000094019402940394049410490594016054
:101B50004821C0E901144FF47A71C0E903144461CB
:101B60008461FFF7F7FB4FF4805000906946084806
:101B7000FFF768FC049404A905480594FFF7B6FB39
:101B80000348FFF733FC06B010BD0000002C0140F5
:101B900098000020FEE7000010B50C46C02121701F
:101BA000C1212171FEF70EFB1049FEF7CDFAFEF7B9
:101BB00012FBB0F5002F01DB0D4804E010F5002FFB
:101BC00001DC0B48404200F07F02C011E27000F0DF
:101BD0007F02A270C0F3C51161702146BDE81040BC
:101BE0004FF0FF3308220348FFF7DCBE00001C4122
:101BF000FFFF0700E000002070477047F8B504467B
:101C000040684FF48273984217D1A0684FF4806502
:101C1000B0F5004F01D0A8420FD12068066826F029
:101C2000400606606068984207D1A068A84204D1C7
:101C300000920B460022012103E000920B46002295
:101C40008021204600F018F8002804D0606D40F094
:101C5000200060650320F8BD38B50B4600920446AD
:101C60000022802100F008F8002804D0606D40F0C8
:101C700020006065032038BD2DE9F8431E469146DB
:101C800088460446089DFEF71DFD401B351AFEF7E9
:101C900019FD074625480068C0F3CB30684338E09B
:101CA000701C37D0FEF70EFDC01BA84203D215B141
:101CB000009860B32CE02068416821F0E0014160A9
:101CC0006068B0F5827F0BD1A068B0F5004F02D0FC
:101CD000B0F5806F04D12068016821F040010160F7
:101CE000A06AB0F5005F09D12068016821F40051B5
:101CF00001602068016841F400510160012084F80E
:101D00005100002084F850000320BDE8F88300252E
:101D1000401E00902068816838EA010004D000214C
:101D20004945BDD10020F0E70121F9E73C00002042
:101D3000704700002DE9FF410024174E4FF48057F3
:101D4000009401940294394630460394FEF7B0FCA7
:101D5000010012481DD0012505602A46394630464B
:101D6000FEF7ABFC0122D1023046FEF7A6FC0122B1
:101D700011023046FEF7A1FC4FF4C850CDE9000532
:101D80000320CDE9024069463046FEF7A1FBBDE8DD
:101D9000FF810460FBE70000000801401C000020F8
:101DA000FEF796BC30B58FB028216846FEF7C1F922
:101DB00014210AA8FEF7BDF901210804CDE900109D
:101DC0000024029402250491CDE907504FF4E0105D
:101DD00009906846FEF700FE0F20CDE90A0568026B
:101DE000CDE90C4002210AA80E94FEF709FD0FB0C0
:101DF00030BD70470148FFF791BB000098000020FC
:101E0000F0B50268164B174C174D4FF080479842BB
:101E100005D0B84203D0A04201D0A84203D122F09D
:101E200070064A683243984205D0B84203D0A042B7
:101E300001D0A84203D122F44074CA6822434C69FD
:101E400022F08002224302608A68C2620A688262CB
:101E5000984201D10969016301214161F0BD00008F
:101E6000002C0140000400400008004010B58468C8
:101E700042EA032224F47F440A432243826010BDD5
:101E8000826822F070020A4342F0070181607047C5
:101E900010B5036A046A24F001040462846924F022
:101EA000F00444EA021423F00A020A438461026245
:101EB00010BD10B5036A23F0100303628369046A3E
:101EC00023F4704343EA023224F0A00343EA0111F1
:101ED0008261016210BD10B5406A0021C185C184D4
:101EE000FFF7E7FB10BD0168CA6822F49072CA6070
:101EF00001684A6922F001024A61202180F83A1003
:101F0000704710B590F83A10222901D0022010BD78
:101F100082684FF480539A4201D1016921B1816AEC
:101F20009A421BD04AB10AE00268816A5268C2F341
:101F300008020A80816A891C08E0026972B102689D
:101F4000526802F07F020A70816A491C8162C18D69
:101F5000491E0904090CC18503D016E002685268C5
:101F6000F1E70168CA6822F02002CA600168CA6805
:101F700022F48072CA6001684A6922F001024A6153
:101F8000202180F83A10FFF70BFD002010BD000063
:101F900070B5044600680169E26821F440511143BC
:101FA00001612169A0680843616908432168CA6822
:101FB00041F20C639A430243CA6020684169A269F6
:101FC00021F44071114341611E492068884202D1C9
:101FD000FEF7BCFC01E0FEF7A9FC00EBC00101EB41
:101FE0000012606864218000B2FBF0F3B3FBF1F3F0
:101FF0006FF018067343B2FBF0F5B2FBF0F605EB99
:102000008305322303EB0515B5FBF1F5B6FBF1F6BD
:1020100005F0F00505EB0615B2FBF0F6B2FBF0F0AB
:10202000B0FBF1F06FF01802504306EB800003EBB9
:102030000010B0FBF1F0216800F00F002844886028
:1020400070BD0000003801402DE9F0419846174668
:102050000E460446069D1DE0681C1BD02DB1FEF700
:1020600031FBA0EB0800A84214D92068C16821F414
:10207000D071C1602068416921F0010141612020D7
:1020800084F8390084F83A00002084F838000320EE
:10209000BDE8F0812068006836EA000004D0002026
:1020A000B842D9D00020F3E70120F9E70148FFF753
:1020B00001BB0000E0000020FEE700000F4A30B442
:1020C000127AA02303EB021200F07F030A700B7157
:1020D000C01100F07F034C1CCB70C01100F07F03D7
:1020E000C0F3C3108B7010434870214630BC4FF0D2
:1020F000FF3304220248FFF755BC00001C000020FB
:10210000E00000200907090E002804DB00F1E020B0
:1021100080F80014704700F00F0000F1E02080F814
:10212000141D704702E008C8121F08C1002AFAD126
:1021300070477047002001E001C1121F002AFBD147
:10214000704700003EB56420FEF7B0F91DA11F4C9A
:10215000D1E90001CDE90101002208212046FEF766
:10216000ACFA4FF0FF33082201A91948FEF703FF2C
:10217000012208212046FEF7A0FA6420FEF796F916
:1021800005208DF8000011208DF80100022269461B
:10219000282000F06FF880208DF8000000208DF8D6
:1021A000010002226946012000F064F813208DF836
:1021B000000020208DF801000222694600F05AF844
:1021C0003EBD0000FFFFFFFFFFFFFFFF00080140D3
:1021D000400000202DE9FC4100F07F0040F040006D
:1021E000224E14460D468DF8040000220821304688
:1021F000FEF763FA012C03D008E00120FEF756F940
:1022000040213046FEF754FA0028F6D14FF0FF3750
:102210003B46012201A91648FEF7ADFE3B460122CE
:1022200069461348FEF7FAFD9DF80040012D09DDCF
:102230003B46012269460E48FEF7F0FD9DF800106E
:1022400001EB0424022D09DD3B46012269460848C2
:10225000FEF7E4FD9DF8001001EB042401220821A3
:102260003046FEF72AFA2046BDE8FC81000801400E
:1022700040000020F8B500F07F000F4D14460F46D7
:102280008DF80000002208212846FEF716FA4FF0CC
:10229000FF363346012269460848FEF76CFEA2B2BB
:1022A000334639460548FEF766FE012208212846D6
:1022B000FEF703FAF8BD00000008014040000020CE
:1022C000FEF70EFAFFF76EFDFFF7C8FBFFF718FCED
:1022D0000D480C490C2201604FF416514160002159
:1022E0008160C160C0E904128161C161FFF790FAA9
:1022F000FFF722FCFFF726FFFFF71CFDFDF7D0FFDD
:10230000FCE7000000380140E00000200000000071
:102310000000000001020304060708090000000095
:1023200001020304442300080000002040000000D4
:10233000242100088423000840000020E00400005D
:102340003421000800000000000000000000000030
:10235000000000000000000000000000000000007D
:10236000010000000000000000000000000000006C
:10237000000000000100000010000000000000004C
:042380000024F40041
:04000005080000ED02
:00000001FF
