:020000040800F2
:10000000A82F002099010008CD290008E327000847
:10001000C9290008C30200083531000800000000AB
:1000200000000000000000000000000001010008C6
:10003000C905000800000000450100087D2F0008E8
:10004000B3010008B3010008B3010008B3010008C0
:10005000B3010008B3010008B3010008B3010008B0
:10006000B3010008B3010008B3010008B3010008A0
:10007000B3010008B3010008B3010008B301000890
:10008000B3010008B3010008B3010008B301000880
:1000900025310008B3010008B3010008B3010008CE
:1000A000B301000819300008B3010008B3010008CB
:1000B00029300008B3010008B3010008B3010008AB
:1000C000B3010008B3010008B3010008B301000840
:1000D000B3010008B3010008B3010008B301000830
:1000E000B3010008B3010008B3010008DFF80CD029
:1000F00000F0AAF80048004789380008A82F00201F
:10010000224B19680868B0E8F00F80F30988BFF344
:100110006F8F4FF0000080F311884EF00D0E704786
:100120000000000006480068006880F3088862B696
:1001300061B6BFF34F8FBFF36F8F00DF00BF00BF0B
:1001400008ED00E0EFF30980BFF36F8F0F4B1A68E3
:1001500020E9F00F106008B54FF0500080F31188CF
:10016000BFF34F8FBFF36F8F04F0B8F94FF000006B
:1001700080F31188BDE8084019680868B0E8F00FFE
:1001800080F30988BFF36F8F704700BFDC01002048
:10019000EFF3058070470000064880470648004797
:1001A000FEE7FEE7FEE7FEE7FEE7FEE7FEE7FEE727
:1001B000FEE7FEE717300008ED00000840EA010303
:1001C0009B0703D009E008C9121F08C0042AFAD20D
:1001D00003E011F8013B00F8013B521EF9D27047D1
:1001E000D2B201E000F8012B491EFBD27047002279
:1001F000F6E710B513460A4604461946FFF7F0FF26
:10020000204610BD30B5041E71F1000404DB4FF030
:100210000044404264EB0101141E73F1000405DB4D
:100220001C464FF00043524263EB04038B4208BF6D
:10023000824230BD002801DBC0F10040002901DB13
:10024000C1F1004181427047064C074D06E0E0686D
:1002500040F0010394E8070098471034AC42F6D30D
:10026000FFF748FF405200086052000870B58C1834
:1002700010F8015B15F0070301D110F8013B2A11BA
:1002800006D110F8012B03E010F8016B01F8016BA7
:100290005B1EF9D12B0705D40023521E0DD401F8A3
:1002A000013BFAE710F8013BCB1A921C03E013F86C
:1002B000015B01F8015B521EF9D5A142D8D30020A1
:1002C00070BD00BFFEE7000070B50446B4F90050F1
:1002D00042480068012875D1A32D5FD006DCA02D0F
:1002E00009D0A12D32D0A22D76D143E0C02D6BD004
:1002F000C12D71D16CE001229102394801F060F802
:1003000001225102364801F05BF801221102344803
:1003100001F056F80020314988600121314801F090
:1003200045F84FF4967000F095FE01212D4801F03C
:100330003DF84FF4967000F08DFE0121294801F040
:1003400035F84FF4967000F085FE45E000224FF43A
:100350008061234801F034F801225102204801F065
:100360002FF8012211021E4801F02AF801201B4932
:10037000886031E001229102194801F021F8002241
:100380004FF40071164801F01BF8012211021448C5
:1003900001F016F80220114988601DE00122910247
:1003A0000F4801F00DF8012251020D4801F008F844
:1003B00000224FF480710A4801F002F80320074937
:1003C000886009E009E0FFE700200449486003E095
:1003D00001200249486000BF00BF70BDC00100207D
:1003E00000080140000C01407047000070B5044651
:1003F00060781B494978884218D1A07818498978D3
:10040000884213D1E0781649C97888420ED1207904
:1004100013490979884209D160791149497988429B
:1004200004D1A0790E498979884203D000200D4972
:10043000086014E00C48057803200C4901EB8501A5
:1004400048800B4802F008FD0A200A49087002F0B3
:10045000C9FA00F0BBF801200249086000BF70BD76
:1004600094010020D40100209B010020B400002052
:100470003C020020AC010020704770477047704775
:10048000704770477047704770477047014A01686E
:100490001160704720000020704700BF00F004F892
:1004A000012003F038FAF9E72DE9F04147E0284848
:1004B000006800EB80012648083000EBC10090F88E
:1004C00025402348006800EB80012148083000EBFC
:1004D000C100057F1F4830F82460382C04DC00EB95
:1004E00084004088A8420ADA19480068401C642148
:1004F00090FBF1F201FB1200154908601EE0701933
:1005000000EB8000144911F82070114A126802EBC8
:1005100082030F4A083202EBC30202F11C000F4AA9
:1005200052F8271088470A480068401C642190FB55
:10053000F1F201FB12000649086000BF00BF044849
:100540000068034949688842B1D1BDE8F0810000E4
:10055000A0050020B4000020404A0008240000202C
:1005600010B513480068012821D10122032104207D
:1005700002F058FE0F490860012000F06BFD0E48A4
:100580000068012806D10B4800680C49081A0C497C
:10059000086005E007480068A0F500000849086009
:1005A000074800680749086000200149086010BD3D
:1005B000B8010020B0010020C0010020EB7BE80062
:1005C000B4010020A40100207047000010B514E021
:1005D0002949096801EB81022749083101EB4200F2
:1005E00002F0ACFB48B924480068401C6421B0FB11
:1005F000F1F201FB1200204908601F4800681E4903
:1006000049688842E4D130E01C49096801EB810265
:100610001A49083101EB420002F090FB48B9174833
:100620000068401C6421B0FBF1F201FB1200134989
:10063000086014E01049096801EB81020E49083195
:1006400001EB420002F07AFB48B90B480068401CFD
:100650006421B0FBF1F201FB120007490860064873
:100660000068054949688842E4D1044800680349A4
:1006700049688842C8D110BD4815002038190020AB
:100680004FF4967000F0E6FC01210D4800F08EFE5C
:100690004FF4967000F0DEFC0121094800F086FE60
:1006A0004FF4967000F0D6FC0121054800F07EFE64
:1006B0004FF4967000F0CEFC72B600BFFEE700006B
:1006C000000C014010B5024692F82030012B01D0F9
:1006D000022B06D11068406908431468606100204D
:1006E00010BD506A40F4802050620120F8E7F0B558
:1006F00004460D461E4694F8207020688368A8685A
:1007000000B900E000BF012F01D0022F7CD103F01F
:10071000806030B903F0006018B903F08050002801
:1007200073D0C3F30161022905D9606A40F4000067
:1007300060620120F0BD012088403060A86860B987
:10074000B5F800C0E86840EA4C5C206800F5C0706D
:1007500000EB0110C0F800C00FE0D5E901C040EA8D
:10076000CC00D5F80CC040EA0C00D4F800C00CF561
:10077000C07C0CEB011CCCF80000D5F810C0206840
:1007800000F5C07000EB0110C0F804C0287D0128FE
:100790000ED1206800F5C07000EB0110406840F4F5
:1007A000807C206800F5C07000EB0110C0F804C028
:1007B000D079000692F806C040EA0C4092F805C0D5
:1007C00040EA0C2C10794CEA000C206800F5C0704F
:1007D00000EB0110C0F80CC0D078000692F802C0FF
:1007E00040EA0C4092F801C040EA0C2092F800C0A8
:1007F00040EA0C00D4F800C00CF5C07C0CEB011CE6
:10080000CCF80800206801E016E00FE000F5C070A9
:1008100000EB0110006840F0010C206800F5C0708A
:1008200000EB0110C0F800C0002083E7606A40F4CC
:100830000010606201207DE7606A40F48020606201
:10084000012077E7F0B504460A46216894F8205065
:10085000012D01D0022D74D1D1F8000240F0010029
:10086000C1F80002107D00F01F06012000FA06F317
:10087000D1F81C029843C1F81C02D069C8B9D1F85C
:100880000C029843C1F80C02908880B2968940EA25
:10089000064601F51070576940F83760108880B23D
:1008A000168940EA064601F51070576900EBC7004B
:1008B0004660D069012819D1D1F80C021843C1F85B
:1008C0000C02908880B2168840EA064601F5107046
:1008D000576940F83760908980B2168940EA064629
:1008E00001F51070576900EBC7004660906928B9A0
:1008F000D1F804029843C1F8040204E0D1F80402DC
:100900001843C1F80402106928B9D1F814029843B9
:10091000C1F8140204E0D1F814021843C1F814021B
:10092000106A012804D1D1F81C021843C1F81C0236
:10093000D1F8000220F00100C1F800020020F0BD53
:10094000FFE7606A40F4802060620120F7E77047AB
:1009500070B5044694F82050012D01D0022D7DD1B0
:1009600051B92068C06800F0030080B9606A40F4A3
:1009700000106062012070BD2068006900F0030073
:1009800028B9606A40F4001060620120F3E7206833
:1009900000F5D87000EB0110006800F004009060D2
:1009A000906840B9206800F5D87000EB011000682D
:1009B000400D106007E0206800F5D87000EB0110D2
:1009C0000068C0085060206800F5D87000EB011086
:1009D000006800F00200D060206800F5D87000EBDD
:1009E0000110406800F00F001061206800F5D87019
:1009F00000EB0110406800F47F40000A906120681D
:100A000000F5D87000EB01104068000C50612068C0
:100A100000F5D87000EB011080681870206800F5B0
:100A2000D87000EB0110806800F47F40000A587015
:100A3000206800F5D87000EB0110806800F47F009A
:100A4000000C9870206800F5D87000EB01108068E9
:100A5000000ED870206800F5D87000E02FE000EBA1
:100A60000110C0681871206800F5D87000EB011003
:100A7000C06800F47F40000A5871206800F5D87003
:100A800000EB0110C06800F47F00000C9871206832
:100A900000F5D87000EB0110C068000ED87131B9B4
:100AA0002068C06840F020002668F06005E02068FB
:100AB000006940F020002668306100205BE7606A32
:100AC00040F480206062012055E72DE9F05F044684
:100AD0000025206846692068D0F80490206887685F
:100AE0002068D0F80CA02068D0F810B02068D0F8AA
:100AF000188006F00100002855D007F00100C0B1B1
:100B000001202168886007F0020018B1204600F03B
:100B10009AFA0EE007F0040010B145F4006508E011
:100B200007F0080010B145F4805502E0204600F0BF
:100B300089FA07F48070C8B14FF48070216888602A
:100B400007F4007018B1204600F07FFA0EE007F4B9
:100B5000806010B145F4005508E007F4006010B162
:100B600045F4804502E0204600F06EFA07F480303C
:100B7000C8B14FF480302168886007F4003018B1A4
:100B8000204600F064FA0EE007F4802010B145F42E
:100B9000004508E007F4002010B145F4803502E07C
:100BA000204600F053FA06F0080038B10AF01000B1
:100BB00020B145F4007510202168C86006F00400DB
:100BC00040B10AF0080028B108202168C86020461A
:100BD00000F0A8F906F0020038B12068C06800F003
:100BE000030010B1204600F09FF906F0400038B134
:100BF0000BF0100020B145F48065102021680861D9
:100C000006F0200040B10BF0080028B10820216850
:100C10000861204600F0B6F906F0100038B12068EF
:100C2000006900F0030010B1204600F0ADF906F4B1
:100C3000003040B109F0100028B110202168486050
:100C4000204600F0CFF906F4803040B109F00800EA
:100C500028B1082021684860204600F0F9F906F420
:100C6000004088B309F0040078B306F4807020B126
:100C700008F0010008B145F0010506F4007020B14C
:100C800008F0020008B145F0020506F4806020B1CA
:100C900008F0040008B145F0040506F40060A0B1B6
:100CA00008F0700088B108F07000402817D006DC0A
:100CB00010280BD020280CD0302819D10CE0502857
:100CC00010D0602814D110E01DE019E045F00805AF
:100CD0000FE045F010050CE045F0200509E045F077
:100CE000400506E045F0800503E045F4807500E02E
:100CF00000BF00BF2068806920F070002168886113
:100D00000420216848602DB1606A28436062204653
:100D1000FFF71DFEBDE8F09F70B504460CB9012039
:100D200070BD94F8200010B9204600F0AFF820689C
:100D3000006820F002002168086000F047FB0546CB
:100D40000DE000F043FB401B0A2808D9606A40F41C
:100D500000306062052084F820000120E0E7206870
:100D6000406800F002000028EBD12068006840F0E5
:100D700001002168086000F029FB05460DE000F045
:100D800025FB401B0A2808D9606A40F400306062E5
:100D9000052084F820000120C2E72068406800F0A8
:100DA00001000028EBD0207E012806D120680068D1
:100DB00040F080002168086005E02068006820F0AD
:100DC000800021680860607E012806D120680068E4
:100DD00040F040002168086005E02068006820F0CD
:100DE000400021680860A07E012806D120680068C4
:100DF00040F020002168086005E02068006820F0CD
:100E0000200021680860E07E012806D12068006883
:100E100020F010002168086005E02068006840F0BC
:100E2000100021680860207F012806D12068006832
:100E300040F008002168086005E02068006820F0A4
:100E4000080021680860607F012806D120680068DA
:100E500040F004002168086005E02068006820F088
:100E6000040021680860D4E90201084321690843AD
:100E7000616908436168491E08432168C861002010
:100E80006062012084F82000002049E710B586B098
:100E90000446002002900390049005901E492068AB
:100EA000884236D100BF1D48C06940F000701B4920
:100EB000C8610846C06900F00070019000BF00BF23
:100EC00000BF0846806940F00400886108468069D8
:100ED00000F00400019000BF00BFC8140290002081
:100EE0000390049002A90E4800F0C8F84FF4805017
:100EF0000290022003900320059002A9084800F008
:100F0000BDF800220521142000F008FB142000F099
:100F1000F5FA06B010BD0000006400400010024069
:100F2000000801407047000070B50546144840684D
:100F3000401C642190FBF1F201FB1206104840684E
:100F400000EB80010E48083000EBC10404F11C03E3
:100F5000224600212846FFF7FBFC78B9217801F0F2
:100F60001F000749496801EB81020549083101EB7F
:100F7000C20181F8250002494E6000BF70BD00002B
:100F8000A00500207047000070B505461448406871
:100F9000401C642190FBF1F201FB120610484068EE
:100FA00000EB80010E48083000EBC10404F11C0383
:100FB000224600212846FFF7CBFC78B9217801F0C2
:100FC0001F000749496801EB81020549083101EB1F
:100FD000C20181F8250002494E6000BF70BD0000CB
:100FE000A0050020704770B5044694F82000012841
:100FF00022D1022084F820002068006820F001003F
:101000002168086000F0E2F905460DE000F0DEF925
:10101000401B0A2808D9606A40F40030606205204D
:1010200084F82000012070BD2068406800F00100B5
:101030000028EBD16062F6E7606A40F4002060624D
:101040000120F0E77047704770477047704770475E
:101050007047000070B5044600F0B8F90646254612
:10106000681C10B104480078054400BF00F0AEF9D8
:10107000801BA842FAD370BD180000202DE9F84764
:101080000346002294466EE14FF0010808FA02F48C
:10109000D1F8008008EA0400A0427DD1DFF8DCA28C
:1010A000D1F80480A8EB0A09D0453AD014DCB8F195
:1010B000030F50D009DCB8F1000F31D0B8F1010FA7
:1010C0001CD0B8F1020F49D120E0B8F1110F18D0AF
:1010D000B8F1120F42D11EE0B9F5881F25D006DC09
:1010E000B9F5803F20D0B9F5801F37D11AE0B9F5A6
:1010F000001F18D0B9F5041F30D117E0D1F80CC08B
:101100002DE0D1F80C8008F1040C28E0D1F80C8017
:1011100008F1080C23E0D1F80C8008F10C0C1EE05B
:1011200000BF00BF00BF00BF00BF00BFD1F80880F4
:10113000B8F1000F02D14FF0040C0BE0D1F8088099
:10114000B8F1010F03D14FF0080C1C6102E04FF021
:10115000080C5C6103E04FF0000C00E000BF00BF32
:10116000FF2801D8984601E003F104084646FF280D
:1011700002D84FEA820803E0A2F108084FEA880883
:101180004746D6F800804FF00F0909FA07F928EA18
:1011900009080CFA07F900E088E048EA0908C6F8EF
:1011A0000080D1F8048008F08058B8F1805F7DD1CC
:1011B00000BFDFF8CC81D8F8188048F00108DFF8CC
:1011C000C091C9F81880C846D8F8188008F00108FE
:1011D000CDF8008000BF00BF4FEAB9384FEA92094E
:1011E00058F829504FEA82784FEA18794FF00F08E3
:1011F00008FA09F825EA0805DFF88881434502D195
:101200004FF0000816E0DFF88081434502D14FF02F
:1012100001080FE0DFF87481434502D14FF0020866
:1012200008E0DFF86C81434502D14FF0030801E08C
:101230004FF004084FEA82794FEA197908FA09F861
:1012400048EA0505DFF84C814FEA920948F8295031
:10125000D1F8048008F48038B8F5803F0AD1DFF86F
:101260003881D8F8008048EA0008DFF82C91C9F8E6
:10127000008009E0DFF82081D8F8008028EA000823
:10128000DFF81491C9F80080D1F8048008F4003820
:10129000B8F5003F10D1DFF8008108F10408D8F854
:1012A000008048EA0008DFF8F09000E05AE009F119
:1012B0000409C9F800800DE0DFF8DC8008F10408BB
:1012C000D8F8008028EA0008DFF8CC9009F104097A
:1012D000C9F80080D1F8048008F48018B8F5801FA0
:1012E0000ED1DFF8B48008F10808D8F8008048EA89
:1012F0000008DFF8A49009F10809C9F800800DE0A2
:10130000DFF8948008F10808D8F8008028EA00087F
:10131000DFF8849009F10809C9F80080D1F8048049
:1013200008F40018B8F5001F0ED1DFF86C8008F142
:101330000C08D8F8008048EA0008DFF85C9009F152
:101340000C09C9F800800DE0DFF84C8008F10C08AA
:10135000D8F8008028EA0008DFF83C9009F10C0971
:10136000C9F80080521CD1F8008028FA02F8B8F1C0
:10137000000F7FF489AEBDE8F8870000000011106F
:101380000010024000080140000C01400010014024
:101390000014014008000140000401400246936827
:1013A0000B400BB1012000E00020704710B5C2686F
:1013B00021EA020302EA010443EA0443036110BD87
:1013C0000AB1016101E00B04036170470148006844
:1013D00070470000100000200348006803490978A6
:1013E00008440149086070471000002018000020E0
:1013F00010B50848006840F0100006490860032056
:1014000000F0CAF8002000F007F800F047F80020CC
:1014100010BD00000020024070B588B004460025D1
:101420000026002221461C2000F078F81C2000F045
:1014300065F800BF1648C06940F001001449C86152
:101440000846C06900F00100019000BF00BF02A97A
:1014500003A800F07BF900F0A1F945000D48B5FBA9
:10146000F0F0461E4FF080400B49086040F2E73133
:101470000948C160466000210161816000F0A4FF5D
:1014800020B9054800F0F6FF08B070BD0120FBE769
:101490000010024040420F005805002008B500BF70
:1014A0001448806940F0010012498861084680694B
:1014B00000F00100009000BF00BF00BF0846C069F7
:1014C00040F08050C8610846C06900F0805000902C
:1014D00000BF00BF00220F21901E00F01FF800BFC8
:1014E0000549486820F0E06040F00070486000BFA7
:1014F00008BD0000001002400000014001460846FF
:10150000002809DB00F01F0301229A4043099B00D9
:1015100003F1E023C3F8002100BF70472DE9F05F1D
:1015200080460D461646002701F006FE074639465E
:101530002A46334601F00700C0F1070ABAF1040F4A
:1015400002D94FF0040A01E0C0F1070AD14600F1C8
:10155000040ABAF1070F02D24FF0000A01E0A0F12D
:10156000030AD4464FF0010A0AFA09FAAAF1010A5D
:101570000AEA020A0AFA0CFA4FF0010B0BFA0CFB0A
:10158000ABF1010B0BEA030B4AEA0B042146404680
:1015900001F0DAFDBDE8F09F00BF00F00702064B46
:1015A00019684FF6FF031940044B0B4343EA02212D
:1015B000014B196000BF70470CED00E00000FA0518
:1015C00070B504460D460CB9012070BD5A4800683C
:1015D00000F00700A8420ED25748006820F007002C
:1015E0002843554908600846006800F00700A842F3
:1015F00001D00120E9E7207800F0020002281DD187
:10160000207800F00400042805D14C48406840F4DC
:10161000E0604A494860207800F00800082805D1B9
:101620004648406840F46050444948604348406838
:1016300020F0F000A168084340494860207800F09D
:10164000010078B36068012806D13C48006800F4C6
:10165000003090B90120B8E76068022806D1374809
:10166000006800F0007040B90120AEE73348006820
:1016700000F0020008B90120A7E73048406820F0D8
:101680000300616808432D494860FFF79FFE064646
:1016900009E0FFF79BFE801B41F28831884202D9A6
:1016A000032092E707E02548406800F00C006168DD
:1016B000B0EB810FEDD12048006800F00700A84290
:1016C0000ED91D48006820F0070028431A49086019
:1016D0000846006800F00700A84201D0012074E726
:1016E000207800F00400042807D11448406820F452
:1016F000E060E168084311494860207800F0080084
:10170000082808D10D48406820F46050216940EA5B
:10171000C1000A49486000F051F808494968C1F31E
:101720000311074A515CC840064908600648006832
:10173000FFF772FE002048E7002002400010024040
:101740001C4A00081C000020140000200F22026028
:101750000D4A526802F0030242600B4A526802F0DE
:10176000F0028260084A526802F4E062C260064AEF
:10177000526802F46052D2080261044A126802F010
:1017800007020A607047000000100240002002407B
:1017900001480068704700001C00002000B5FFF7FA
:1017A000F7FF04494968C1F30221034A515CC8406C
:1017B00000BD0000001002402C4A0008F0B585B0C2
:1017C0000FF26C0C9CE8E01001A8A0E8E0101CA54A
:1017D0002D68009500210022002300240020194DCF
:1017E000696801F00C05F5B1042D02D0082D19D15E
:1017F00001E0154819E001ADC1F38346AC5D01F489
:10180000803555B10F4D6D68C5F340451DF8052075
:101810000D4D6543B5FBF2F302E00C4D04FB05F3FF
:10182000184602E000BF084800BF00BF05B0F0BD89
:1018300002030405060708090A0B0C0D0E0F101011
:10184000010200000010024000127A0000093D0071
:10185000F8B504460CB90120F8BD207800F001006D
:10186000002878D0F848406800F00C0004280CD01C
:10187000F548406800F00C00082811D1F248406893
:1018800000F48030B0F5803F0AD1EF48006800F4E2
:10189000003000285FD0606800285CD10120DBE7C1
:1018A00000BF6068B0F5803F06D1E748006840F4AB
:1018B0008030E549086028E0606858B9E24800686F
:1018C00020F48030E04908600846006820F4802059
:1018D00008601AE06068B0F5A02F0BD1DA48006804
:1018E00040F48020D84908600846006840F4803001
:1018F00008600AE0D448006820F48030D2490860CB
:101900000846006820F48020086000BF606888B145
:10191000FFF75CFD054606E0FFF758FD401B642815
:1019200001D9032098E7C848006800F40030002877
:10193000F2D010E0FFF74AFD054606E0FFF746FD4E
:10194000401B642801D9032086E7BF48006800F4E3
:1019500000300028F2D1207800F00200022857D190
:10196000B948406800F00C0050B1B748406800F03A
:101970000C00082818D1B448406800F4803098B9A9
:10198000B148006800F0020020B12069012801D0B0
:10199000012061E7AC48006820F0F800616940EA86
:1019A000C100A949086033E02069E8B10120A749D6
:1019B0000860FFF70BFD054606E0FFF707FD401B3B
:1019C000022801D9032047E79F48006800F0020081
:1019D0000028F2D09C48006820F0F800616940EAD5
:1019E000C1009949086013E0002098490860FFF79A
:1019F000EDFC054606E0FFF7E9FC401B022801D993
:101A0000032029E79048006800F002000028F2D186
:101A1000207800F0080008282DD1A069B8B1012075
:101A20008B490860FFF7D2FC054606E0FFF7CEFCC5
:101A3000401B022801D903200EE78348406A00F0CA
:101A400002000028F2D0012001F0A8F813E00020E5
:101A50007F490860FFF7BAFC054606E0FFF7B6FCD1
:101A6000401B022801D90320F6E67748406A00F0BF
:101A700002000028F2D1207800F00400042873D17D
:101A800000277148C06900F0805070B900BF6E48EF
:101A9000C06940F080506C49C8610846C06900F0D8
:101AA0008050009000BF00BF01276A48006800F422
:101AB0008070B0B96748006840F48070654908607C
:101AC000FFF784FC054606E0FFF780FC401B642816
:101AD00001D90320C0E65F48006800F48070002848
:101AE000F2D000BFE068012806D15748006A40F0F4
:101AF00001005549086227E0E06858B95248006A79
:101B000020F00100504908620846006A20F00400F5
:101B1000086219E0E06805280BD14B48006A40F0E4
:101B20000400494908620846006A40F00100086262
:101B30000AE04548006A20F001004349086208466F
:101B4000006A20F00400086200BFE068A0B1FFF75F
:101B50003DFC054609E0FFF739FC401B41F28831A6
:101B6000884202D9032077E622E03748006A00F075
:101B700002000028EFD012E0FFF728FC054608E03D
:101B8000FFF724FC401B41F28831884201D9032031
:101B900062E62D48006A00F002000028F0D1012F13
:101BA00005D12948C06920F080502749C86100BF8D
:101BB000E069C8B32448406800F00C00082860D0F1
:101BC000E069022848D1002020490866FFF7FEFBA3
:101BD000054606E0FFF7FAFB401B022801D9032067
:101BE0003AE61948006800F000700028F2D1206A37
:101BF000B0F5803F07D11448406820F40030A16858
:101C0000084311494860D4E9080108430E4949686E
:101C100021F4741108430C49486001200B490866FF
:101C2000FFF7D4FB054607E03DE0FFF7CFFB401B85
:101C3000022801D903200FE60348006800F0007075
:101C40000028F2D02FE000000010024000004242C5
:101C50008004424200700040002014490866FFF7EB
:101C6000B5FB054606E0FFF7B1FB401B022801D992
:101C70000320F1E50E48006800F000700028F2D162
:101C800011E0E069012800D1E6E50948466806F45C
:101C90008031206A814204D106F47011606A814269
:101CA00001D00120D8E50020D6E500000000424226
:101CB0000010024010B504460CB9012010BD606A46
:101CC00038B96068B0F5827F00D105E00021E1619C
:101CD00002E00021216161610021A16294F85100BC
:101CE00028B9002084F85000204600F043F8022074
:101CF00084F851002068006820F0400021680860E6
:101D0000A08800F48270218901F404410843A1896C
:101D100001F400610843217C01F002010843217DA8
:101D200001F001010843218B01F400710843217F78
:101D300001F0380108432021095D01F080010843CA
:101D4000218D01F400510843216808600421A06935
:101D500001EA1040216848602068C06920F40060F2
:101D60002168C86100206065012084F851000020CE
:101D7000A4E7000010B586B004460020029003904E
:101D8000049005901949206888422DD100BF184859
:101D9000806940F48050164988610846806900F4E3
:101DA0008050019000BF00BF00BF0846806940F02E
:101DB000040088610846806900F00400019000BFBB
:101DC00000BFA0200290022003900320059002A9EA
:101DD0000848FFF753F94020029000200390049038
:101DE00002A90448FFF74AF906B010BD00300140CF
:101DF00000100240000801402DE9F84304468846DF
:101E000016461D464FF000096068B0F5827F0DD17F
:101E1000A06858B9042084F8510033464246414630
:101E20002046009500F077F9BDE8F88300BF94F8EC
:101E30005000012801D10220F6E7012084F850006B
:101E400000BFFFF7C3FA074694F85100012802D0FB
:101E50004FF002097EE0B8F1000F00D016B94FF044
:101E6000010977E0042084F8510000206065C4F87F
:101E70003880A687E6872063A086E08620646064B9
:101E8000A068B0F5004F0BD12068006820F040003A
:101E9000216808602068006820F48040216808609C
:101EA0002068006800F04000402805D020680068E5
:101EB00040F0400021680860E068F8B91AE0206846
:101EC000806800F0010050B12068007BA16B0870B1
:101ED000A06B401CA063E08F401EE0870AE0FFF784
:101EE00075FAC01BA84201D3681C00B915B94FF0A0
:101EF00003092FE0E08F0028E1D11EE01AE02068FE
:101F0000806800F0010050B12068C068A16B0880B3
:101F1000A06B801CA063E08F401EE0870AE0FFF703
:101F200055FAC01BA84201D3681C00B915B94FF07F
:101F300003090FE0E08F0028E1D13A462946204608
:101F400000F040FE08B120206065606D08B14FF0E0
:101F5000010900BF012084F8510000BF002084F86F
:101F6000500000BF48465FE72DE9F84F0446884619
:101F700016461D464FF0000A00BF94F85000012895
:101F800002D10220BDE8F88F012084F8500000BF84
:101F9000FFF71CFA0746B14694F85100012802D019
:101FA0004FF0020AADE0B8F1000F00D016B94FF0C3
:101FB000010AA6E0032084F8510000206065C4F8FF
:101FC0003080A686E686A063A087E08760642064F0
:101FD000A068B0F5004F0BD12068006820F04000E9
:101FE000216808602068006840F48040216808602B
:101FF0002068006800F04000402805D02068006894
:1020000040F0400021680860E068B0F5006F2FD113
:10201000606810B1B9F1010F09D1206B0088216807
:10202000C860206B801C2063E08E401EE0861BE0B1
:102030002068806800F0020002280AD1206B008826
:102040002168C860206B801C2063E08E401EE08603
:102050000AE0FFF7BBF9C01BA84201D3681C00B916
:1020600015B94FF0030A4CE0E08E0028E0D12EE0D5
:10207000606810B1B9F1010F09D1206B00782168B7
:102080000873206B401C2063E08E401EE0861BE03E
:102090002068806800F0020002280AD1206B0078D6
:1020A00021680873206B401C2063E08E401EE08690
:1020B0000AE0FFF78BF9C01BA84201D3681C00B9E6
:1020C00015B94FF0030A1CE0E08E0028E0D13A4633
:1020D0002946204600F0B2FD08B120206065A068C6
:1020E00050B900BF002000902068C06800902068B0
:1020F0008068009000BF00BF606D08B14FF0010A1A
:1021000000BF012084F8510000BF002084F8500077
:1021100000BF504636E72DE9FF5F044688469146EA
:102120001D460E9E012002900020019000BF94F8F1
:102130005000012803D1022004B0BDE8F09F012027
:1021400084F8500000BFFFF741F9074694F851B0FA
:1021500060680390AA46BBF1010F0BD00398B0F55D
:10216000827F04D1A06810B9BBF1040F02D0022015
:102170000190DBE0B8F1000F03D0B9F1000F00D0FF
:1021800015B901200190D1E094F85100042802D043
:10219000052084F8510000206065C4F83890E58778
:1021A000A587C4F83080E586A58620646064206831
:1021B000006800F04000402805D02068006840F02A
:1021C000400021680860E068B0F5006F4AD160689F
:1021D00010B1BAF1010F09D1206B00882168C860E5
:1021E000206B801C2063E08E401EE08633E0206878
:1021F000806800F00200022810D1E08E70B10298D1
:1022000001280BD1206B00882168C860206B801CDE
:102210002063E08E401EE0860020029020688068E7
:1022200000F0010068B1E08F58B12068C068A16B70
:102230000880A06B801CA063E08F401EE087012017
:102240000290FFF7C3F8C01BB04204D3701C10B15A
:10225000032001906AE0E08E0028C8D1E08F0028BA
:10226000C5D14AE0606810B1BAF1010F09D1206B05
:10227000007821680873206B401C2063E08E401EAC
:10228000E08634E02068806800F00200022810D167
:10229000E08E70B1029801280BD1206B0078216884
:1022A0000873206B401C2063E08E401EE0860020F7
:1022B00002902068806800F0010068B1E08F58B19A
:1022C0002068C068A16B0870A06B401CA063E08F01
:1022D000401EE08701200290FFF778F8C01BB04253
:1022E00001D3701C00B916B9032001901EE0E08EE6
:1022F0000028C7D1E08F0028C4D13A463146204695
:1023000000F09CFC20B101200190202060650DE0D0
:10231000A06850B900BF002000902068C0680090FD
:1023200020688068009000BF00BF00BF012084F8D3
:10233000510000BF002084F8500000BF0198FBE668
:102340007047704730B502460B4600BF92F83C001C
:10235000012801D1022030BD012082F83C0000BFDD
:10236000022082F83D00106844681068816824F0FB
:1023700070041868044310684460104D1068A84247
:102380000BD01068B0F1804F07D00D4D1068A842F7
:1023900003D00C4D1068A84205D121F08001586887
:1023A000014310688160012082F83D0000BF0020D9
:1023B00082F83C0000BF00BFCDE70000002C0140C8
:1023C000000400400008004010B504460CB901208C
:1023D00010BD94F83D0028B9002084F83C00204648
:1023E00000F026F8022084F83D00211D206800F04E
:1023F00023FE012084F8460000BF84F83E0001213E
:102400003F200155402001554120015500BF00BF2C
:10241000012084F842004320015544200155452005
:10242000015500BF012084F83D000020D0E70000E6
:1024300038B504460D492068884215D100BF0C48C4
:10244000806940F400600A4988610846806900F4A8
:102450000060009000BF00BF002205211920FFF797
:102460005DF81920FFF74AF838BD0000002C014044
:1024700000100240014691F83D00012801D00120E2
:102480007047022081F83D000868C06840F00100F4
:102490000B68D860124B086898420BD00868B0F1FE
:1024A000804F07D00F4B0868984203D00E4B086846
:1024B00098420CD10868806800F00702062A0CD008
:1024C0000868006840F001000B68186005E00868C3
:1024D000006840F001000B6818600020D0E70000A1
:1024E000002C014000040040000800402DE9F041AC
:1024F00004460D4600BF94F83C00012802D102209A
:10250000BDE8F081012084F83C0000BF022084F87F
:102510003D002068866826F0770626F47F4620680E
:1025200086602868502833D00CDC202850D004DC8A
:1025300000284BD0102851D149E0302849D04028FC
:102540004CD139E060282DD0702807D0B0F5805FDD
:1025500003D0B0F5005F41D10DE040E0D5E90213B2
:102560006A68206800F0A2FD2068866846F0770659
:102570002068866033E0D5E902136A68206800F0BD
:1025800095FD2068806840F480402168886026E0DE
:10259000EA686968206800F09DFD5021206800F01D
:1025A00090FD1CE0EA686968206800F0A6FD6021E3
:1025B000206800F086FD12E0EA686968206800F093
:1025C00089FD4021206800F07CFD08E000BF00BFCD
:1025D00000BF2968206800F074FD00E000BF00BF64
:1025E000012084F83D0000BF002084F83C0000BFBB
:1025F00000BF85E7704710B5044620680069C0F346
:102600004000D8B12068C068C0F34000B0B16FF09E
:10261000020021680861012020772068806900F0AD
:10262000030018B12046FFF7E5FF05E0204600F063
:10263000ADF8204600F0ABF8002020772068006954
:10264000C0F38000D8B12068C068C0F38000B0B18A
:102650006FF00400216808610220207720688069FB
:1026600000F4407018B12046FFF7C4FF05E0204693
:1026700000F08CF8204600F08AF8002020772068CF
:102680000069C0F3C000D8B12068C068C0F3C000C2
:10269000B0B16FF00800216808610420207720683D
:1026A000C06900F0030018B12046FFF7A3FF05E062
:1026B000204600F06BF8204600F069F800202077F3
:1026C00020680069C0F30010D8B12068C068C0F36A
:1026D0000010B0B16FF01000216808610820207769
:1026E0002068C06900F4407018B12046FFF782FFEF
:1026F00005E0204600F04AF8204600F048F80020A7
:1027000020772068006900F0010058B12068C06897
:1027100000F0010030B16FF001002168086120462F
:1027200000F036F820680069C0F3C01058B1206886
:10273000C068C0F3C01030B16FF08000216808613C
:102740002046FFF7FDFD20680069C0F3801058B1F6
:102750002068C068C0F3801030B16FF0400021687D
:102760000861204600F03CF820680069C0F3401082
:1027700058B12068C068C0F3401030B16FF020003D
:10278000216808612046FFF7DCFD10BD70477047E7
:1027900010B504462068B0F1804F01D1FEF71CFE51
:1027A0000B492068884211D10A480068401C094939
:1027B000086008460068322808D30020086001201D
:1027C0000549086001210548FEF7F0FD10BD000035
:1027D000002C01400C000020B8010020000C01403A
:1027E000704700BFFEE7000010B5104810490860B0
:1027F0000920486000210E4881604FF04071C1609F
:102800004FF4602101614FF44011416100210176D4
:1028100041768176C17601774177FEF77DFA08B17E
:10282000FDF72EFF024800F0C9FA10BD0064004019
:102830003C02002000B585B000200190029003907A
:10284000049000BF2E48806940F020002C49886128
:102850000846806900F02000009000BF00BF00BF64
:102860000846806940F0040088610846806900F0ED
:102870000400009000BF00BF00BF0846806940F020
:10288000080088610846806900F00800009000BFD9
:1028900000BF012208211B48FEF792FD0022012102
:1028A0001948FEF78DFD042001900020029003904E
:1028B00001A91448FEF7E2FB0820019001200290D4
:1028C000002003900320049001A90E48FEF7D6FBD8
:1028D000012001900290002003900220049001A9A1
:1028E0000948FEF7CBFB4FF4E06001900020029016
:1028F0000120039001A90348FEF7C0FB05B000BD0D
:102900000010024000080140000C014010B50F48C3
:102910000F4908604FF48270486000210C488160C4
:10292000C1600221016101214161490281613021BF
:10293000C16100210162416281620A21C162FFF727
:10294000B9F908B1FDF79CFE10BD00000030014050
:102950006402002000B587B0002003900490059029
:102960000690019002901648164908604820486079
:1029700000211448816040F2E731C160002101610B
:1029800041618161FFF720FD08B1FDF779FE4FF449
:102990008050039003A90B48FFF7A8FD08B1FDF78D
:1029A0006FFE00200190029001A90648FFF7CAFCC3
:1029B00008B1FDF765FE0348FFF75CFD07B000BDF9
:1029C000002C0140BC02002000BFFEE700BFFEE774
:1029D00000BF00F007F8FDF7F9FD012000F09BFFB4
:1029E000F7E700002DE9F0474FF00008002500BF91
:1029F000B9E0604800EB8500408800287DD05D4844
:102A000030F825703C46A3E004EB84005A4901EB02
:102A100080008068002871D004EB840011F82060E9
:102A200004EB84038C460CEB8303D96804EB84032A
:102A30000CEB83039868514B53F8262090470028ED
:102A40005CD004EB84004C4901EB800040780C28FA
:102A50003BD1E01BC1B24A48406800EB80024848C5
:102A6000083000EB420041704548406800EB8002AE
:102A70004348083000F8125004EB840CDFF8F8905B
:102A800009EB8C0CDCF80C2004EB840C09EB8C0CAF
:102A9000DCF80810DFF8E8C0DCF804C00CEB8C09A7
:102AA00084460CEB490C0CF10200DFF8D8C05CF84E
:102AB0002630984732484068401C6421B0FBF1F250
:102AC00001FB12002E4948603DE0E01BC1B22E48D8
:102AD000406800EB80022C48083000EB4200417057
:102AE0002948406800EB80022748083000F812505F
:102AF00004EB840CDFF8809001E032E027E009EB82
:102B00008C0CDCF80C2004EB840C09EB8C0CDCF84E
:102B10000810DFF874C0DCF804C00CEB8C098446A4
:102B20000CEB490C0CF10200DFF858C05CF82630C1
:102B3000984715484068401C6421B0FBF1F201FB46
:102B400012001149486008F1010000F0FF08641C00
:102B5000084800EB850040883844A0423FF754AF56
:102B600000BF681C85B2382DFFF643AF4046BDE874
:102B7000F0870000B4000020404A00085400002004
:102B800048150020840000203819002000BFFDF700
:102B9000E7FC012000F0BFFEF9E7000008B5084996
:102BA0000968C9084FF47A72B1FBF2F14143009110
:102BB00000BF00BF00994A1E00920029F9D108BD4C
:102BC0001C000020F8B504460E4615466068B0F5B6
:102BD000827F0DD1A068B0F5004F03D0A068B0F59A
:102BE000806F05D12068006820F0400021680860EF
:102BF0006068B0F5827F11D1A068B0F5806F0DD10B
:102C00003346002201212046009500F02BF898B1B0
:102C1000606D40F0200060650320F8BD334600225F
:102C200080212046009500F01DF828B1606D40F02D
:102C3000200060650320F0E70020EEE7F8B50446C9
:102C40000D4616462B46002280212046009600F0B5
:102C500009F828B1606D40F0200060650320F8BDE0
:102C60000020FCE72DE9F84F04460D4690461E462D
:102C7000DDF82890FEF7AAFBA0EB0900371AFEF753
:102C8000A5FB82462C480068C0F3CB307843009007
:102C900045E0701C002842D0FEF798FBA0EB0A002C
:102CA000B84200D2A7BB2068406820F0E00021684D
:102CB00048606068B0F5827F0DD1A068B0F5004F24
:102CC00003D0A068B0F5806F05D12068006820F0BF
:102CD000400021680860A06AB0F5005F0DD100BF18
:102CE0002068006820F400502168086020680068AF
:102CF00040F400502168086000BF012084F85100B2
:102D000000BF002084F8500000BF0320BDE8F88F0A
:102D1000FFE7009800B900270098401E0090206847
:102D200080682840A84201D1012000E000204045F1
:102D3000AFD10020EAE700001C0000202DE9F0439D
:102D400089B0054600272C7895F801800094002072
:102D50000190039002906878144931F8241000EB38
:102D6000010909EB8900124911F820001149085C9A
:102D7000049001200890012405E0601EA91C095C54
:102D800006A80155641C0498A042F6D806AE86F841
:102D9000008008AB06AA69460748FDF7A8FC00B109
:102DA0000127384609B0BDE8F0830000B4000020D8
:102DB000404A0008344A00083C0200202DE9FC414A
:102DC000064600250020009001900027002400BF47
:102DD00016E0204800EB8500408878B12046641C4E
:102DE0002DF81050032C09DD002432466946384680
:102DF00000F06CF87F1C002000900190681C85B2E8
:102E0000382DE6DB05E0BDF800202046641C2DF8D7
:102E10001020042C01DA002CF5D124B13246694689
:102E2000384600F053F83046FEF7DDF808B1FDF7FC
:102E300027FC03213046FDF745FC08B1FDF720FCD7
:102E400011213046FDF73EFC08B1FDF719FCBDE845
:102E5000FC810000B40000202DE9FC41064600255D
:102E60000020009001900027002400BF16E01648C3
:102E700000EB8500408878B12046641C2DF8105086
:102E8000032C09DD002432466946384600F01EF85E
:102E90007F1C002000900190681C85B2382DE6DB75
:102EA00005E0BDF800202046641C2DF81020042CFD
:102EB00001DA002CF5D124B132466946384600F0DB
:102EC00005F8BDE8FC810000B400002070B58AB0B0
:102ED00005460C46164601200890059500200490F2
:102EE000208840010090608840010190A088400146
:102EF0000290E08840010390012006900020079096
:102F0000099069463046FDF79DFC08B1FDF7B8FB16
:102F10000AB070BD1FB50020009001900290039090
:102F20004FF480611348FEF739FA18B900201249AE
:102F300008601EE0012010490860012281020D484E
:102F4000FEF73EFA012251020A48FEF739FA012241
:102F500011020848FEF734FA4FF4E06000900120B7
:102F60000190002002900320039069460148FEF77B
:102F700085F81FBD00080140C001002010B500BF4A
:102F8000502080F31188BFF34F8FBFF36F8F00BFC6
:102F900001F0F4FB18B14FF080500449086000BF05
:102FA000002080F3118800BF10BD000004ED00E098
:102FB00000B58FB0282105A8FDF719F9142168463E
:102FC000FDF715F9012005900004069000200790F8
:102FD0000120099002200C90C1030D914FF4E011E3
:102FE0000E9105A8FEF734FC08B1FDF749FB0F2050
:102FF000009002200190002002904FF48060039026
:103000000020049002216846FEF7DAFA08B1FDF7C5
:1030100037FB0FB000BD704710B50248FFF7EBFA61
:1030200010BD0000BC02002010B50248FFF7E3FA13
:1030300010BD00005805002010B50268184B9842DA
:1030400008D0B0F1804F05D0164B984202D0164BF5
:10305000984203D122F070024B681A43104B9842F9
:1030600008D0B0F1804F05D00E4B984202D00E4BE5
:10307000984203D122F44072CB681A4322F08003B5
:103080004C6943EA040202608B68C3620B68836286
:10309000034B984201D10B6903630123436110BDC7
:1030A000002C0140000400400008004030B50C46F0
:1030B000816821F47F4142EA032525432943816049
:1030C00030BD0A46816821F0700142F007031943C0
:1030D0008160704730B50B461446026A056A25F0D8
:1030E00001050562816921F0F00141EA041122F035
:1030F0000A021A438161026230BD30B50B461446A4
:10310000056A25F0100505628169026A21F47041A3
:1031100041EA043122F0A00242EA03128161026214
:1031200030BD000010B50248FDF7CFFC10BD000017
:103130003C02002000BFFEE702480068C0F3022006
:10314000704700000CED00E010B5002804DB0A0712
:10315000130E054A135406E00A07140E034A00F042
:103160000F031B1FD45410BD00E400E018ED00E075
:1031700002E008C8121F08C1002AFAD17047704740
:10318000002001E001C1121F002AFBD1704700009E
:103190001CB50BA103C9CDE90001002208210A4892
:1031A000FEF70EF94FF0FF33082269460748FEF795
:1031B000DBFE012208210448FEF702F91CBD0000D5
:1031C000FFFFFFFFFFFFFFFF000801406402002038
:1031D00008B56420FDF73EFFFFF7DAFF6420FDF736
:1031E00039FF05208DF8000011208DF80100022222
:1031F0006946282000F06CF880208DF8000000203F
:103200008DF8010002226946012000F061F81320C8
:103210008DF8000020208DF801000222694600F0A0
:1032200057F808BD2DE9FC4106460D461746002417
:1032300006F07F0001909DF8040040F040000190EE
:10324000002208212048FEF7BBF8012F09D102E037
:103250000120FDF7FFFE40211B48FEF79FF80028E4
:10326000F6D14FF0FF33012201A91848FEF77CFE8A
:103270004FF0FF33012269461448FEF7BDFD9DF86B
:103280000040012D0ADD4FF0FF33012269460F484F
:10329000FEF7B2FD24029DF800000444022D0ADD71
:1032A0004FF0FF33012269460848FEF7A5FD2402CE
:1032B0009DF800000444012208210348FEF780F82D
:1032C0002046BDE8FC8100000008014064020020A7
:1032D000F8B504460E46154604F07F000090002223
:1032E00008210B48FEF76CF84FF0FF3301226946C6
:1032F0000848FEF739FEAAB24FF0FF3331460548C1
:10330000FEF732FE012208210148FEF759F8F8BD08
:1033100000080140640200200B8803808B788370D2
:103320000B8813808B789370704710B5024600208D
:1033300062B113780C78A34207D153784C78A3423A
:1033400003D193788C78A34200D0012010BD0000F7
:103350002DE9F04105466E7A2F78164830F8268020
:1033600008EB070084B204EB8400134901EB8000F2
:103370004068E0B104EB840001EB80004068B5F8E0
:1033800001100180E978817004EB84000A4901EBA7
:103390008000006958B104EB84020B4603EB820203
:1033A000506804EB840203EB820211698847BDE890
:1033B000F0810000B4000020404A00080B68036060
:1033C0000B7903710B6813600B791371704710B59B
:1033D00002460020A2B113780C78A3420FD1537893
:1033E0004C78A3420BD193788C78A34207D1D37841
:1033F000CC78A34203D113790C79A34200D00120E9
:1034000010BD00002DE9F04105466E7A2F78164870
:1034100030F8268008EB070084B204EB84001349DF
:1034200001EB80004068E0B104EB840001EB800018
:103430004068D5F8011001606979017104EB8400DE
:103440000A4901EB8000006958B104EB84020B4685
:1034500003EB8202506804EB840203EB82021169E1
:103460008847BDE8F0810000B4000020404A000811
:103470000B6803608B8883800B6813608B88938054
:10348000704710B502460020C2B113780C78A342F1
:1034900013D153784C78A3420FD193788C78A34200
:1034A0000BD1D378CC78A34207D113790C79A342FE
:1034B00003D153794C79A34200D0012010BD000004
:1034C0002DE9F04105466E7A2F78164830F82680AF
:1034D00008EB070084B204EB8400134901EB800081
:1034E0004068E8B104EB840001EB80004068D5F847
:1034F00001100160B5F80510818004EB84000A49D1
:1035000001EB8000006958B104EB84020B4603EB29
:103510008202506804EB840203EB8202116988473F
:10352000BDE8F081B4000020404A00080CB50B68EB
:1035300003608B8883808B798371002300930193D0
:10354000036800938388ADF8043083798DF80630E2
:103550000B6813608B8893808B7993710CBD10B5C9
:1035600002460020E2B113780C78A34217D15378B9
:103570004C78A34213D193788C78A3420FD1D3789F
:10358000CC78A3420BD113790C79A34207D153799C
:103590004C79A34203D193798C79A34200D00120C6
:1035A00010BD00002DE9F04105466E7A2F781748CE
:1035B00030F8268008EB070084B204EB840014493D
:1035C00001EB80004068F8B104EB840001EB80005F
:1035D0004068D5F801100160B5F805108180E979DF
:1035E000817104EB84000A4901EB8000006958B145
:1035F00004EB84020B4603EB8202506804EB840266
:1036000003EB820211698847BDE8F081B400002015
:10361000404A00080B6803604B6843600B68136006
:103620004B68536070472DE9F84F044689460020E7
:1036300000906CB1A246CB46DBE900532A46DAE99A
:1036400000713846FCF7DEFD01D00120009000BF7C
:103650000098BDE8F88F00002DE9F04705466F7A25
:1036600095F80080164830F8279009EB080084B2DE
:1036700004EB8400134901EB80004068E8B104EBDF
:10368000840001EB80004668D5F80510D5F80100EC
:10369000C6E9000104EB84000A4901EB80000069DF
:1036A00058B104EB84020B4603EB8202506804EB32
:1036B000840203EB820211698847BDE8F0870000AD
:1036C000B4000020404A000810B503460C881C8056
:1036D00013460C881C8010BD70B5024600204AB10C
:1036E00014460B46B4F90050B3F90060B54200D05F
:1036F000012000BF70BD00002DE9F04705466F7A3C
:1037000095F80080144830F8279009EB080084B23F
:1037100004EB8400114901EB80004068C8B104EB60
:10372000840001EB80004668B5F80100308004EBAE
:10373000840001EB8000006958B104EB84020B4661
:1037400003EB8202506804EB840203EB82021169EE
:103750008847BDE8F0870000B4000020404A000818
:1037600010B503460C681C6013460C681C6010BD45
:1037700070B5024600203AB114460B4625681E6813
:10378000B54200D0012000BF70BD00002DE9F04718
:1037900005466F7A95F80080144830F8279009EBB9
:1037A000080084B204EB8400114901EB80004068FA
:1037B000C8B104EB840001EB80004668D5F8010035
:1037C000306004EB840001EB8000006958B104EB29
:1037D00084020B4603EB8202506804EB840203EB85
:1037E000820211698847BDE8F0870000B40000201C
:1037F000404A000810B503460C781C7013460C783C
:103800001C7010BD70B5024600204AB114460B462C
:1038100094F9005093F90060B54200D0012000BF38
:1038200070BD00002DE9F04705466F7A95F80080DD
:10383000134830F8279009EB080084B204EB8400A9
:10384000104901EB80004068C0B104EB840001EB3B
:10385000800046686878307004EB840001EB8000DB
:10386000006958B104EB84020B4603EB82025068F6
:1038700004EB840203EB820211698847BDE8F087FC
:10388000B4000020404A000896B0FDF7B1FDFFF7F4
:103890008FFBFEF7CFFFFEF7A7FFFFF737F8FFF725
:1038A00059F8FFF737FBFFF793FC1C2212490FA8CA
:1038B000FCF784FC00210FA800F03EF80F490860D7
:1038C0001C220D491C3108A8FCF778FC002108A82F
:1038D00000F032F80A4908601C220749383101A873
:1038E000FCF76CFC002101A800F026F805490860EF
:1038F00000F01DF800BFFEE7C849000800000020E6
:10390000040000200800002001460020842901D086
:10391000CA1C1044704770B5044625460DB12946AF
:1039200000E00121084600F04BFD002070BD10B5FD
:1039300000F074FD002010BD7FB504460D4660699F
:1039400098B1A06988B1B4F90800FFF7DDFF064619
:10395000D4E90510CDE9006102902B462269D4E933
:10396000001000F0AFFE039013E0B4F90800FFF779
:10397000CBFF064603A8CDE90060238A9AB22B4606
:10398000D4E9001000F06CFE012802D0002004B041
:1039900070BD0398FBE700002DE9F04105460E4697
:1039A0001C4807681C480068001D00F00DFC50B959
:1039B0001948006890F82C100120884017490968C0
:1039C000814316480160681C38B936B11248016855
:1039D000091D134800F042FC1AE07C190E480068EB
:1039E0004460BC4207D20C480168091D0D480068BC
:1039F00000F01AFC0CE008480168091D0A4800683C
:103A000000F012FC09480068844201D207480460B3
:103A1000BDE8F081F0010020DC010020F40100206D
:103A2000941F0020E4010020E00100200C0200208F
:103A300010B5044600F01EFC23480068401C2249D3
:103A400008602248006840B92048046008460068C1
:103A500001280DD100F03AF90AE01D48006838B994
:103A60001A480068C06AE16A884201D817480460B1
:103A700018480068401C1749086094F82C10012071
:103A8000884015490968084313490860E16A01EB59
:103A90008101124A02EB8100211D00F0DFFB00F0E2
:103AA00013FC0B48006868B108480068C06AE16A06
:103AB000884207D24FF0805009490860BFF34F8F0A
:103AC000BFF36F8F10BD0000EC010020DC0100206F
:103AD000F801002008020020F4010020B81E002098
:103AE00004ED00E010B516E000F0C4FB0C48C0681F
:103AF000C468201D00F068FB0A480068401E0949A0
:103B0000086009480068401E0749086000F0DCFBB7
:103B1000204600F00BF8044800680028E4D110BDEE
:103B2000801F0020EC010020E801002010B50446B1
:103B300094F8510030B9206B00F0E4FB204600F00F
:103B4000E1FB1AE094F85100012803D1204600F06F
:103B5000D9FB12E094F85100022801D1012000E0C5
:103B6000002050B900BF502080F31188BFF34F8F61
:103B7000BFF36F8F00BF00BFFEE710BD30B54FF43D
:103B80004063174800F007042CB1C01D20F0070067
:103B9000134C041B1B1B0246124C22600024114DC7
:103BA0006C60D018083820F007000F4C206000240B
:103BB0000D4D2D686C600C4D2D682C601146441A1B
:103BC0004C60094C24680C60084D4C682C60084D12
:103BD0004C682C604FF00044064D2C6030BD000056
:103BE000A81F002018020020200200202802002028
:103BF000240200202C02002000BFFFF773FF0648BC
:103C000000680128F9D94FF0805004490860BFF3DB
:103C10004F8FBFF36F8FF0E7B81E002004ED00E078
:103C20002DE9FF5F81460F469246DDE90E6B109C41
:103C3000AAF10100216B01EB800828F0070808F0C9
:103C4000070008B9012000E0002050B900BF502053
:103C500080F31188BFF34F8FBFF36F8F00BF00BF9A
:103C6000FEE7002507E0795D04F134004155785DF9
:103C700000B902E06D1C102DF5D300BF00214320D8
:103C80000155072E00D30626E66266640020A06474
:103C9000201D00F0C6FA04F1180000F0C2FA2461F9
:103CA000C6F10700A06164620020E06484F850005F
:103CB00049464046039A00F049F92060BBF1000FE5
:103CC00001D0CBF80040BDE8FF9F000010B50024F4
:103CD00007E004EB84010F4A02EB810000F094FA44
:103CE000641C072CF5D30C4800F08EFA0B4800F04A
:103CF0008BFA0B4800F088FA0A4800F085FA0A4867
:103D000000F082FA0448094908600448084908603C
:103D100010BD0000B81E0020441F0020581F0020C6
:103D20006C1F0020801F0020941F0020E001002055
:103D3000E401002010B50146164800E00068036861
:103D40008B42FBD30246436813448B4204D1436841
:103D50004C682344436001460A464B681344046898
:103D6000A34211D10C4C03682468A34208D04B68CD
:103D70000468646823444B6003681B680B6005E0BB
:103D8000054B1B680B6001E003680B60884200D0A4
:103D9000016010BD18020020200200200A490968B5
:103DA000096809B9012100E0002121B14FF0FF317C
:103DB000064A116006E004490968C968C868034AF0
:103DC0004168116070470000E00100200C020020F3
:103DD0000E480068401C08B9012000E0002050B9DE
:103DE00000BF502080F31188BFF34F8FBFF36F8F58
:103DF00000BF00BFFEE700BF502080F31188BFF373
:103E00004F8FBFF36F8F00BF00BFFEE7300200206F
:103E10002DE9F04104464FF0000800F057FB4648FA
:103E2000006808B9FFF7AAFE44480068204000284F
:103E30006BD1D4B1083404F00700B0B104F007002E
:103E4000C0F10800044404F0070008B9012000E0B4
:103E5000002050B900BF502080F31188BFF34F8F6E
:103E6000BFF36F8F00BF00BFFEE7002C4DD034487A
:103E70000068844249D8334E3046056801E02E463A
:103E80002D686868A04202D228680028F7D12A4825
:103E90000068854239D0306800F108082868306031
:103EA0006868001B102819D92F1907F0070008B9F6
:103EB000012000E0002050B900BF502080F311889D
:103EC000BFF34F8FBFF36F8F00BF00BFFEE768687F
:103ED000001B78606C603846FFF72CFF1849686853
:103EE0000968081A164908600846006816490968F2
:103EF000884203D212480068134908600F49686875
:103F00000968084368600020286000F0DBFC08F0C6
:103F1000070008B9012000E0002050B900BF502080
:103F200080F31188BFF34F8FBFF36F8F00BF00BFC7
:103F3000FEE74046BDE8F081200200202C02002070
:103F4000240200201802002028020020001F4FF049
:103F500080730360001F21F001030360001F034B07
:103F6000036014380260203870470000D13D00081B
:103F700010B503460C681C6013460C681C6010BD2D
:103F80002DE9F04104460D4600264CB12746A846CF
:103F9000D8F800103868FCF74DF900D0012600BFB2
:103FA0003046BDE8F08100002DE9F04705466F7A04
:103FB00095F80080144830F8279009EB080084B287
:103FC00004EB8400114901EB80004068C8B104EBA8
:103FD000840001EB80004668D5F80100306004EBF6
:103FE000840001EB8000006958B104EB84020B46A9
:103FF00003EB8202506804EB840203EB8202116936
:104000008847BDE8F0870000B4000020404A00085F
:1040100010B503460C881C8013460C881C8010BD0C
:1040200070B5024600203AB114460B4625881E881A
:10403000B54200D0012000BF70BD00002DE9F0475F
:1040400005466F7A95F80080144830F8279009EB00
:10405000080084B204EB8400114901EB8000406841
:10406000C8B104EB840001EB80004668B5F801009C
:10407000308004EB840001EB8000006958B104EB50
:1040800084020B4603EB8202506804EB840203EBCC
:10409000820211698847BDE8F0870000B400002063
:1040A000404A000810B503460C681C6013460C68B3
:1040B0001C6010BD70B5024600203AB114460B4694
:1040C00025681E68B54200D0012000BF70BD000009
:1040D0002DE9F04705466F7A95F80080144830F8CE
:1040E000279009EB080084B204EB8400114901EB2E
:1040F00080004068C8B104EB840001EB8000466892
:10410000D5F80100306004EB840001EB8000006909
:1041100058B104EB84020B4603EB8202506804EBB7
:10412000840203EB820211698847BDE8F087000032
:10413000B4000020404A000810B503460C781C70FB
:1041400013460C781C7010BD70B5024600203AB1C1
:1041500014460B4625781E78B54200D0012000BFDA
:1041600070BD00002DE9F04705466F7A95F8008094
:10417000134830F8279009EB080084B204EB840060
:10418000104901EB80004068C0B104EB840001EBF2
:10419000800046686878307004EB840001EB800092
:1041A000006958B104EB84020B4603EB82025068AD
:1041B00004EB840203EB820211698847BDE8F087B3
:1041C000B4000020404A000801460A69D1E90130E4
:1041D0009860D1E9010358605068884201D188682D
:1041E0005060002008611068401E10601068704721
:1041F000034B0360034B0B60802313607047000088
:10420000040300205803002000F1080141604FF032
:10421000FF31816000F10801C1600161002101608E
:10422000704700210161704710B502460B685C1CA5
:104230000CB9106907E002F1080000E0406844682A
:1042400024689C42FAD944684C604C68A16088603C
:1042500041600A611468641C146010BD42684A60C1
:1042600093688B60936859609160086103685B1C78
:104270000360704700BF502080F31188BFF34F8F59
:10428000BFF36F8F00BF0E480068401C0C490860E8
:1042900008460068012812D10A480068C0B208B96F
:1042A000012000E0002050B900BF502080F31188A9
:1042B000BFF34F8FBFF36F8F00BF00BFFEE77047A4
:1042C0003002002004ED00E00D48006850B900BF46
:1042D000502080F31188BFF34F8FBFF36F8F00BF63
:1042E00000BFFEE706480068401E05490860084612
:1042F000006820B9002080F3118800BF00BF70471C
:104300003002002070B506463546002E3FD0083DED
:104310002C461F4960680968084008B1012000E088
:10432000002050B900BF502080F31188BFF34F8F99
:10433000BFF36F8F00BF00BFFEE7206808B9012000
:1043400000E0002050B900BF502080F31188BFF377
:104350004F8FBFF36F8F00BF00BFFEE70C4960684F
:104360000968084098B1206888B9094960680968F7
:104370008843606000F0AAF806496068096808444C
:10438000044908602046FFF7D5FC00F09BFA70BD99
:104390002C0200202402002000204FF0E0210861C0
:1043A0008861064800684FF47A71B0FBF1F0401E56
:1043B0004FF0E02148610720086170471C00002091
:1043C00070B504460025D4B11248006808B9012030
:1043D00000E0002050B900BF502080F31188BFF3E7
:1043E0004F8FBFF36F8F00BF00BFFEE700F06EF886
:1043F00000212046FFF7D0FA00F064FA05463DB9E7
:104400004FF0805004490860BFF34F8FBFF36F8FA8
:1044100070BD00001402002004ED00E010B586B06D
:1044200000200590049003AA04A905A8FFF7E0FE68
:104430000022DDE904101346CDE9002102901CA101
:104440001D48039A00F03EF91C49086008460068C0
:1044500008B1012400E00024012C15D100BF502038
:1044600080F31188BFF34F8FBFF36F8F00BF4FF002
:10447000FF301349086001201249086000201249EA
:10448000086000F071F810E0601C08B1012000E045
:10449000002050B900BF502080F31188BFF34F8F28
:1044A000BFF36F8F00BF00BFFEE706B010BD000076
:1044B00049444C4500000000F93B00081002002070
:1044C0000C020020F8010020F001002002480068E2
:1044D000401C014908607047140200201D48006814
:1044E00018B101201C49086032E000201A49086018
:1044F0001A480068B0FA80F0C0F11F0101EB81009A
:10450000174A52F8200008B1012000E0002050B9FD
:1045100000BF502080F31188BFF34F8FBFF36F8F20
:1045200000BF00BFFEE701EB81020D4B03EB8200F1
:1045300042685268426000F108024368934202D127
:104540004268526842604268D268064B1A6000BFF7
:10455000704700001402002000020020F401002037
:10456000B81E0020DC0100201CB538490846007840
:104570000190FF200A4610700846007800909DF8D0
:10458000000000F0F0009DF80020904201D10120D1
:1045900000E0002050B900BF502080F31188BFF325
:1045A0004F8FBFF36F8F00BF00BFFEE79DF8000085
:1045B00000F05000264A10700720264A106009E0DB
:1045C00024480068401E234A10609DF80000400601
:1045D000000E00909DF8000000F080008028EFD0D1
:1045E0001C480068C0F10700042801D1012000E048
:1045F000002050B900BF502080F31188BFF34F8FC7
:10460000BFF36F8F00BF00BFFEE7124800680002D3
:10461000104A10601046008800F4E06010600B4AF9
:10462000019810700C48006840F470000A49086056
:104630000846006840F070400860FFF7ADFE0020BB
:1046400006490860FBF76EFD00201CBD00E400E099
:10465000340200203802002020ED00E0300200206B
:104660002DE9FF4F85B0804689461746DDE912AB3C
:10467000B800FFF7CDFB064656B15420FFF7C8FB44
:1046800004460CB1266304E03046FFF73BFE00E031
:1046900000248CB1002084F85100CDE900ABCDE9B5
:1046A00002403A4649464046089BFFF7B9FA204681
:1046B000FFF7BEF9012501E04FF0FF35284609B0AC
:1046C000BDE8F08F2DE9F04F85B00746884691464A
:1046D0009A46DDE90EB6109C0EB1012000E00020E4
:1046E00050B900BF502080F31188BFF34F8FBFF344
:1046F0006F8F00BF00BFFEE70CB1012000E000207B
:1047000050B900BF502080F31188BFF34F8FBFF323
:104710006F8F00BF00BFFEE754200390039854281A
:1047200001D1012000E0002050B900BF502080F3EB
:104730001188BFF34F8FBFF36F8F00BF00BFFEE73D
:10474000B4B1AEB125462C462E63022085F8510047
:10475000002004A953464A46CDE900B1CDE90250F4
:1047600041463846FFF75CFA2846FFF761F901E059
:1047700000200490049805B0BDE8F08F2DE9F041C9
:104780004FF0000844480068002877D1434800688B
:10479000451C4248056015BB41480068006808B9DF
:1047A000012000E0002050B900BF502080F31188A4
:1047B000BFF34F8FBFF36F8F00BF00BFFEE73848D6
:1047C0000768384800683649086036480760364848
:1047D0000068401C34490860FFF7E0FA00BF334826
:1047E000006885423CD300BF2D480068006808B9C6
:1047F000012000E0002020B14FF0FF302B4908607D
:104800002DE027480068C068C4686668B54202D2D7
:104810002648066023E0201DFFF7D6FCA06A18B1E9
:1048200004F11800FFF7D0FC94F82C100120884008
:104830001F49096808431E490860E16A01EB8101CC
:104840001C4A02EB8100211DFFF708FD1A49E06AAE
:104850000968C96A8842C7D34FF00108C4E700BF9E
:1048600015480068C06A00EB8000124951F820002A
:10487000012801D94FF0010805E0FFE70F48006863
:10488000401C0E4908600E48006808B14FF001084E
:104890004046BDE8F081000014020020F001002035
:1048A000E0010020E4010020040200200C020020AE
:1048B000F4010020B81E0020DC010020FC010020D3
:1048C0000002002070B5002400263648006850B968
:1048D00000BF502080F31188BFF34F8FBFF36F8F5D
:1048E00000BF00BFFEE7FFF7C5FC2E480068401E72
:1048F0002C4908600846006800284FD12A48006803
:1049000000284BD024E02948C068C46804F118008E
:10491000FFF75AFC201DFFF757FC94F82C100120DC
:10492000884023490968084321490860E16A01EB8E
:104930008101204A02EB8100211DFFF78FFC1E49F7
:10494000E06A0968C96A884202D301201B490860ED
:104950001648006808B9012000E000200028D2D0E5
:104960000CB1FFF71BFA1648056865B100BFFFF7E9
:1049700005FF10B10120114908606D1E002DF6D110
:1049800000200F4908600D48006838B10126300743
:104990000C490860BFF34F8FBFF36F8FFFF794FC94
:1049A000304670BD14020020EC0100206C1F002076
:1049B000F4010020B81E0020DC01002000020020CD
:1049C000FC01002004ED00E0205200089B040008D8
:1049D000FDFF00000000000080000000000000005B
:1049E0000000000010520008D1290008000000005B
:1049F0000000000080000000000000000000000037
:104A0000305200088D2B000800000000000000005C
:104A10008000000000000000000000000000000016
:104A2000000000000102030406070809000000005E
:104A30000102030402030502030505040607080832
:104A40000A0C00000000000094010020281D002036
:104A5000000000000A0C00009B0100200000000084
:104A600000000000ED030008050C0000000000003D
:104A7000A4010020301D002000000000000D0000F7
:104A800000000000AC010020381D002000000000E4
:104A9000040D0000AE010020000000000000000036
:104AA000C9020008050D000000000000A40100205C
:104AB000401D002000000000000D0000000000006C
:104AC000AD010020481D002000000000040D000082
:104AD000AE0100200000000000000000C902000834
:104AE000050C000000000000A4010020501D002063
:104AF00000000000000D000000000000AC010020DC
:104B0000581D002000000000040D0000AE01002030
:104B10000000000000000000C9020008050C0000B1
:104B200000000000A4010020601D00200000000023
:104B3000000D000000000000AC010020681D0020F6
:104B400000000000040D0000AE0100200000000085
:104B500000000000C9020008060D0000000000006F
:104B600000000000701D002000000000060D000085
:104B70000000000000000000781D00200000000080
:104B8000060D00000000000000000000801D002055
:104B900000000000060D0000000000000000000002
:104BA000881D002000000000060D0000000000002D
:104BB00000000000901D002000000000060D000015
:104BC0000000000000000000981D00200000000010
:104BD000060D00000000000000000000A01D0020E5
:104BE00000000000060D00000000000000000000B2
:104BF000A81D002000000000060D000000000000BD
:104C000000000000000000008D040008060D0000F8
:104C10000000000000000000000000008D040008FB
:104C2000060D000000000000000000000000000071
:104C30008D040008060D00000000000000000000C8
:104C4000000000008D040008060D000000000000B8
:104C500000000000000000008D040008060D0000A8
:104C60000000000000000000000000008D040008AB
:104C7000060D000000000000000000000000000021
:104C80008D040008060D0000000000000000000078
:104C9000000000008D040008060D00000000000068
:104CA00000000000000000008B040008060D00005A
:104CB0000000000000000000000000008B0400085D
:104CC000060D0000000000000000000000000000D1
:104CD0008B040008060D000000000000000000002A
:104CE000000000008B040008060D0000000000001A
:104CF00000000000000000008B040008060D00000A
:104D00000000000000000000000000008B0400080C
:104D1000060D000000000000000000000000000080
:104D20008B040008060D00000000000000000000D9
:104D3000000000008B040008060D000000000000C9
:104D4000000000000000000085040008060D0000BF
:104D500000000000000000000000000085040008C2
:104D6000060D000000000000000000000000000030
:104D700085040008060D000000000000000000008F
:104D80000000000085040008060D0000000000007F
:104D9000000000000000000085040008060D00006F
:104DA0000000000000000000000000008504000872
:104DB000060D0000000000000000000000000000E0
:104DC00085040008060D000000000000000000003F
:104DD0000000000085040008060D0000000000002F
:104DE00000000000000000007B040008060D000029
:104DF0000000000000000000000000008304000824
:104E0000060D00000000000000000000000000008F
:104E100083040008060D00000000000000000000F0
:104E20000000000083040008060D000000000000E0
:104E3000000000000000000083040008060D0000D0
:104E400000000000000000000000000083040008D3
:104E5000060D00000000000000000000000000003F
:104E600083040008060D00000000000000000000A0
:104E70000000000083040008060D00000000000090
:104E8000000000000000000083040008060D000080
:104E9000000000000000000000000000790400088D
:104EA000060D0000000000000000000000000000EF
:104EB00081040008060D0000000000000000000052
:104EC0000000000081040008060D00000000000042
:104ED000000000000000000081040008060D000032
:104EE0000000000000000000000000008104000835
:104EF000060D00000000000000000000000000009F
:104F000081040008060D0000000000000000000001
:104F10000000000081040008060D000000000000F1
:104F2000000000000000000081040008060D0000E1
:104F300000000000000000000000000081040008E4
:104F4000060D00000000000000000000000000004E
:104F500079040008000D00000000000000000000BF
:104F6000B01D002000000000000D00000000000047
:104F700000000000B81D002000000000000D00002F
:104F80000000000000000000C01D00200000000024
:104F9000000D00000000000000000000C81D0020FF
:104FA00000000000000D00000000000000000000F4
:104FB000D01D002000000000000D000000000000D7
:104FC00000000000D81D002000000000000D0000BF
:104FD0000000000000000000E01D002000000000B4
:104FE000000D00000000000000000000E81D00208F
:104FF00000000000000D00000000000000000000A4
:10500000F01D002000000000000D00000000000066
:1050100000000000000000007F040008000D0000F8
:105020000000000000000000000000007D040008F7
:10503000000D000000000000000000000000000063
:1050400099040008000D00000000000000000000AE
:10505000F81D002000000000010D0000000000000D
:10506000000000000000000087040008010D00009F
:10507000000000000000000000000000870400089D
:10508000010D000000000000000000000000000012
:1050900087040008010D000000000000000000006F
:1050A0000000000089040008010D0000000000005D
:1050B000000000000000000089040008010D00004D
:1050C000000000000000000000000000890400084B
:1050D000000D0000000000000000000000000000C3
:1050E000E9030008000000000000000000000000CC
:1050F00000000000000000000000000000000000B0
:10510000000000000000000000000000000000009F
:10511000000000000000000000000000000000008F
:10512000000000000000000000000000000000007F
:10513000000000000000000000000000000000006F
:10514000000000000000000000000000000000005F
:10515000000000000000000000000000000000004F
:10516000000000000000000000000000000000003F
:10517000000000000000000000000000000000002F
:10518000000000000000000000000000000000001F
:10519000000000000000000000000000000000000F
:1051A00000000000000000000000000000000000FF
:1051B00000000000000000000000000000000000EF
:1051C00000000000000000000000000000000000DF
:1051D00000000000000000000000000000000000CF
:1051E00000000000000000000000000000000000BF
:1051F00000000000000000000000000000000000AF
:10520000000000000000000000000000000000009E
:1052100050726F64756365725461736B00000000B7
:10522000436F6E73756D65725461736B000000009F
:1052300050726F64756365745F61645F546173007D
:1052400060520008000000203C0200006C020008D0
:10525000F45200083C0200206C2D00008031000850
:105260000114321042015324F413654114083D40E7
:105270001B08D1041325381408F93614088D371487
:1052800008A93F14085133140805341B08C104133E
:10529000A5351B08591C1A49301A212C1AB5041AB5
:1052A00005301AD9141A71301A81301A2B301ACFDE
:1052B000041A83301A5F301A271C1A39301A112C3D
:1052C0001AA5041AF5281AC9141A61081A71301A95
:1052D000192C1ABD041A71301A2D301A151C4112DE
:1052E0000212033205290D02FB0B026F011AAA01FB
:0452F0008100000039
:04000005080000ED02
:00000001FF
